{
  "_format": "hh-sol-artifact-1",
  "contractName": "Bond",
  "sourceName": "contracts/Bond.sol",
  "abi": [
    {
      "inputs": [
        {
          "internalType": "contract ISuperfluid",
          "name": "host",
          "type": "address"
        },
        {
          "internalType": "contract IConstantFlowAgreementV1",
          "name": "cfa",
          "type": "address"
        },
        {
          "internalType": "contract ISuperToken",
          "name": "acceptedToken",
          "type": "address"
        },
        {
          "internalType": "int96",
          "name": "fundingTarget",
          "type": "int96"
        },
        {
          "internalType": "int96",
          "name": "fundingRate",
          "type": "int96"
        },
        {
          "internalType": "int96",
          "name": "loanTerm",
          "type": "int96"
        }
      ],
      "stateMutability": "nonpayable",
      "type": "constructor"
    },
    {
      "anonymous": false,
      "inputs": [
        {
          "indexed": false,
          "internalType": "address",
          "name": "borrower",
          "type": "address"
        },
        {
          "indexed": false,
          "internalType": "int96",
          "name": "borrowerFlowRate",
          "type": "int96"
        },
        {
          "indexed": false,
          "internalType": "address",
          "name": "acceptedToken",
          "type": "address"
        }
      ],
      "name": "InitialSetup",
      "type": "event"
    },
    {
      "anonymous": false,
      "inputs": [
        {
          "indexed": false,
          "internalType": "int96",
          "name": "_amountRaised",
          "type": "int96"
        },
        {
          "indexed": false,
          "internalType": "address",
          "name": "to",
          "type": "address"
        },
        {
          "indexed": false,
          "internalType": "address",
          "name": "from",
          "type": "address"
        }
      ],
      "name": "TransferAllToBorrower",
      "type": "event"
    },
    {
      "anonymous": false,
      "inputs": [
        {
          "indexed": false,
          "internalType": "address",
          "name": "from",
          "type": "address"
        },
        {
          "indexed": false,
          "internalType": "address",
          "name": "to",
          "type": "address"
        }
      ],
      "name": "cfaTerminated",
      "type": "event"
    },
    {
      "anonymous": false,
      "inputs": [
        {
          "indexed": false,
          "internalType": "address",
          "name": "depositor",
          "type": "address"
        },
        {
          "indexed": false,
          "internalType": "int96",
          "name": "amount",
          "type": "int96"
        }
      ],
      "name": "depositEvent",
      "type": "event"
    },
    {
      "inputs": [],
      "name": "acceptedTokenAddress",
      "outputs": [
        {
          "internalType": "address",
          "name": "",
          "type": "address"
        }
      ],
      "stateMutability": "view",
      "type": "function"
    },
    {
      "inputs": [],
      "name": "admin",
      "outputs": [
        {
          "internalType": "address",
          "name": "",
          "type": "address"
        }
      ],
      "stateMutability": "view",
      "type": "function"
    },
    {
      "inputs": [
        {
          "internalType": "contract ISuperToken",
          "name": "_superToken",
          "type": "address"
        },
        {
          "internalType": "address",
          "name": "_agreementClass",
          "type": "address"
        },
        {
          "internalType": "bytes32",
          "name": "",
          "type": "bytes32"
        },
        {
          "internalType": "bytes",
          "name": "",
          "type": "bytes"
        },
        {
          "internalType": "bytes",
          "name": "",
          "type": "bytes"
        },
        {
          "internalType": "bytes",
          "name": "_ctx",
          "type": "bytes"
        }
      ],
      "name": "afterAgreementCreated",
      "outputs": [
        {
          "internalType": "bytes",
          "name": "newCtx",
          "type": "bytes"
        }
      ],
      "stateMutability": "nonpayable",
      "type": "function"
    },
    {
      "inputs": [
        {
          "internalType": "contract ISuperToken",
          "name": "_superToken",
          "type": "address"
        },
        {
          "internalType": "address",
          "name": "_agreementClass",
          "type": "address"
        },
        {
          "internalType": "bytes32",
          "name": "",
          "type": "bytes32"
        },
        {
          "internalType": "bytes",
          "name": "",
          "type": "bytes"
        },
        {
          "internalType": "bytes",
          "name": "",
          "type": "bytes"
        },
        {
          "internalType": "bytes",
          "name": "_ctx",
          "type": "bytes"
        }
      ],
      "name": "afterAgreementTerminated",
      "outputs": [
        {
          "internalType": "bytes",
          "name": "newCtx",
          "type": "bytes"
        }
      ],
      "stateMutability": "nonpayable",
      "type": "function"
    },
    {
      "inputs": [
        {
          "internalType": "contract ISuperToken",
          "name": "_superToken",
          "type": "address"
        },
        {
          "internalType": "address",
          "name": "_agreementClass",
          "type": "address"
        },
        {
          "internalType": "bytes32",
          "name": "",
          "type": "bytes32"
        },
        {
          "internalType": "bytes",
          "name": "",
          "type": "bytes"
        },
        {
          "internalType": "bytes",
          "name": "",
          "type": "bytes"
        },
        {
          "internalType": "bytes",
          "name": "_ctx",
          "type": "bytes"
        }
      ],
      "name": "afterAgreementUpdated",
      "outputs": [
        {
          "internalType": "bytes",
          "name": "newCtx",
          "type": "bytes"
        }
      ],
      "stateMutability": "nonpayable",
      "type": "function"
    },
    {
      "inputs": [
        {
          "internalType": "contract ISuperToken",
          "name": "",
          "type": "address"
        },
        {
          "internalType": "address",
          "name": "",
          "type": "address"
        },
        {
          "internalType": "bytes32",
          "name": "",
          "type": "bytes32"
        },
        {
          "internalType": "bytes",
          "name": "",
          "type": "bytes"
        },
        {
          "internalType": "bytes",
          "name": "",
          "type": "bytes"
        }
      ],
      "name": "beforeAgreementCreated",
      "outputs": [
        {
          "internalType": "bytes",
          "name": "",
          "type": "bytes"
        }
      ],
      "stateMutability": "view",
      "type": "function"
    },
    {
      "inputs": [
        {
          "internalType": "contract ISuperToken",
          "name": "",
          "type": "address"
        },
        {
          "internalType": "address",
          "name": "",
          "type": "address"
        },
        {
          "internalType": "bytes32",
          "name": "",
          "type": "bytes32"
        },
        {
          "internalType": "bytes",
          "name": "",
          "type": "bytes"
        },
        {
          "internalType": "bytes",
          "name": "",
          "type": "bytes"
        }
      ],
      "name": "beforeAgreementTerminated",
      "outputs": [
        {
          "internalType": "bytes",
          "name": "",
          "type": "bytes"
        }
      ],
      "stateMutability": "view",
      "type": "function"
    },
    {
      "inputs": [
        {
          "internalType": "contract ISuperToken",
          "name": "",
          "type": "address"
        },
        {
          "internalType": "address",
          "name": "",
          "type": "address"
        },
        {
          "internalType": "bytes32",
          "name": "",
          "type": "bytes32"
        },
        {
          "internalType": "bytes",
          "name": "",
          "type": "bytes"
        },
        {
          "internalType": "bytes",
          "name": "",
          "type": "bytes"
        }
      ],
      "name": "beforeAgreementUpdated",
      "outputs": [
        {
          "internalType": "bytes",
          "name": "",
          "type": "bytes"
        }
      ],
      "stateMutability": "view",
      "type": "function"
    },
    {
      "inputs": [],
      "name": "borrower",
      "outputs": [
        {
          "internalType": "address",
          "name": "",
          "type": "address"
        }
      ],
      "stateMutability": "view",
      "type": "function"
    },
    {
      "inputs": [],
      "name": "cfaV1",
      "outputs": [
        {
          "internalType": "contract ISuperfluid",
          "name": "host",
          "type": "address"
        },
        {
          "internalType": "contract IConstantFlowAgreementV1",
          "name": "cfa",
          "type": "address"
        }
      ],
      "stateMutability": "view",
      "type": "function"
    },
    {
      "inputs": [
        {
          "internalType": "int96",
          "name": "amount",
          "type": "int96"
        },
        {
          "internalType": "address",
          "name": "tokenAddress",
          "type": "address"
        }
      ],
      "name": "deposit",
      "outputs": [],
      "stateMutability": "nonpayable",
      "type": "function"
    },
    {
      "inputs": [],
      "name": "openToDeposits",
      "outputs": [
        {
          "internalType": "bool",
          "name": "",
          "type": "bool"
        }
      ],
      "stateMutability": "view",
      "type": "function"
    },
    {
      "inputs": [],
      "name": "secondsPerYear",
      "outputs": [
        {
          "internalType": "int96",
          "name": "",
          "type": "int96"
        }
      ],
      "stateMutability": "view",
      "type": "function"
    },
    {
      "inputs": [
        {
          "internalType": "address",
          "name": "newAdmin",
          "type": "address"
        }
      ],
      "name": "setAdmin",
      "outputs": [],
      "stateMutability": "nonpayable",
      "type": "function"
    }
  ],
  "bytecode": "0x608060405273870ac8121ba4a31de8e5d91675edf3f937b8d7e9600860006101000a81548173ffffffffffffffffffffffffffffffffffffffff021916908373ffffffffffffffffffffffffffffffffffffffff1602179055503480156200006657600080fd5b50604051620040463803806200404683398181016040528101906200008c919062000831565b600073ffffffffffffffffffffffffffffffffffffffff168673ffffffffffffffffffffffffffffffffffffffff161415620000ff576040517f08c379a0000000000000000000000000000000000000000000000000000000008152600401620000f69062000bae565b60405180910390fd5b600073ffffffffffffffffffffffffffffffffffffffff168573ffffffffffffffffffffffffffffffffffffffff16141562000172576040517f08c379a0000000000000000000000000000000000000000000000000000000008152600401620001699062000b6a565b60405180910390fd5b600073ffffffffffffffffffffffffffffffffffffffff168473ffffffffffffffffffffffffffffffffffffffff161415620001e5576040517f08c379a0000000000000000000000000000000000000000000000000000000008152600401620001dc9062000b04565b60405180910390fd5b600081600b0b136200022e576040517f08c379a0000000000000000000000000000000000000000000000000000000008152600401620002259062000b48565b60405180910390fd5b600082600b0b1362000277576040517f08c379a00000000000000000000000000000000000000000000000000000000081526004016200026e9062000b26565b60405180910390fd5b600083600b0b13620002c0576040517f08c379a0000000000000000000000000000000000000000000000000000000008152600401620002b79062000b8c565b60405180910390fd5b85600260006101000a81548173ffffffffffffffffffffffffffffffffffffffff021916908373ffffffffffffffffffffffffffffffffffffffff1602179055508573ffffffffffffffffffffffffffffffffffffffff1663b6d200de7fa9214cc96615e0085d3bb077758db69497dc2dce3b2b1e97bc93c3d18d83efd36040518263ffffffff1660e01b81526004016200035c919062000ae7565b60206040518083038186803b1580156200037557600080fd5b505afa1580156200038a573d6000803e3d6000fd5b505050506040513d601f19601f82011682018060405250810190620003b0919062000805565b600360006101000a81548173ffffffffffffffffffffffffffffffffffffffff021916908373ffffffffffffffffffffffffffffffffffffffff16021790555083600460006101000a81548173ffffffffffffffffffffffffffffffffffffffff021916908373ffffffffffffffffffffffffffffffffffffffff160217905550600460009054906101000a900473ffffffffffffffffffffffffffffffffffffffff16600560006101000a81548173ffffffffffffffffffffffffffffffffffffffff021916908373ffffffffffffffffffffffffffffffffffffffff16021790555082600560146101000a8154816bffffffffffffffffffffffff0219169083600b0b6bffffffffffffffffffffffff160217905550816006600c6101000a8154816bffffffffffffffffffffffff0219169083600b0b6bffffffffffffffffffffffff16021790555080600760006101000a8154816bffffffffffffffffffffffff0219169083600b0b6bffffffffffffffffffffffff1602179055506001600d60026101000a81548160ff0219169083151502179055506000600d60006101000a81548160ff021916908315150217905550336007600c6101000a81548173ffffffffffffffffffffffffffffffffffffffff021916908373ffffffffffffffffffffffffffffffffffffffff1602179055506001600d60016101000a81548160ff0219169083151502179055506040518060400160405280600260009054906101000a900473ffffffffffffffffffffffffffffffffffffffff1673ffffffffffffffffffffffffffffffffffffffff168152602001600360009054906101000a900473ffffffffffffffffffffffffffffffffffffffff1673ffffffffffffffffffffffffffffffffffffffff168152506000808201518160000160006101000a81548173ffffffffffffffffffffffffffffffffffffffff021916908373ffffffffffffffffffffffffffffffffffffffff16021790555060208201518160010160006101000a81548173ffffffffffffffffffffffffffffffffffffffff021916908373ffffffffffffffffffffffffffffffffffffffff160217905550905050600064100000000064040000000064010000000060011717179050600260009054906101000a900473ffffffffffffffffffffffffffffffffffffffff1673ffffffffffffffffffffffffffffffffffffffff1663ad3915c8826040518263ffffffff1660e01b815260040162000751919062000bd0565b600060405180830381600087803b1580156200076c57600080fd5b505af115801562000781573d6000803e3d6000fd5b505050505050505050505062000d25565b600081519050620007a38162000ca3565b92915050565b600081519050620007ba8162000cbd565b92915050565b600081519050620007d18162000cd7565b92915050565b600081519050620007e88162000cf1565b92915050565b600081519050620007ff8162000d0b565b92915050565b6000602082840312156200081857600080fd5b60006200082884828501620007a9565b91505092915050565b60008060008060008060c087890312156200084b57600080fd5b60006200085b89828a01620007d7565b96505060206200086e89828a0162000792565b95505060406200088189828a01620007c0565b94505060606200089489828a01620007ee565b9350506080620008a789828a01620007ee565b92505060a0620008ba89828a01620007ee565b9150509295509295509295565b620008d28162000c12565b82525050565b6000620008e7601d8362000bed565b91507f6163636570746564546f6b656e206973207a65726f20616464726573730000006000830152602082019050919050565b60006200092960258362000bed565b91507f43616e206e6f7420686176652061206e6567617469766520696e74657265737460008301527f20726174650000000000000000000000000000000000000000000000000000006020830152604082019050919050565b60006200099160288362000bed565b91507f43616e206e6f7420686176652061206c6f616e207465726d206c65737320746860008301527f616e2031206461790000000000000000000000000000000000000000000000006020830152604082019050919050565b6000620009f960138362000bed565b91507f636661206973207a65726f2061646472657373000000000000000000000000006000830152602082019050919050565b600062000a3b60268362000bed565b91507f43616e206e6f7420686176652061206e656761746976652066756e64696e672060008301527f74617267657400000000000000000000000000000000000000000000000000006020830152604082019050919050565b600062000aa360148362000bed565b91507f686f7374206973207a65726f20616464726573730000000000000000000000006000830152602082019050919050565b62000ae18162000c99565b82525050565b600060208201905062000afe6000830184620008c7565b92915050565b6000602082019050818103600083015262000b1f81620008d8565b9050919050565b6000602082019050818103600083015262000b41816200091a565b9050919050565b6000602082019050818103600083015262000b638162000982565b9050919050565b6000602082019050818103600083015262000b8581620009ea565b9050919050565b6000602082019050818103600083015262000ba78162000a2c565b9050919050565b6000602082019050818103600083015262000bc98162000a94565b9050919050565b600060208201905062000be7600083018462000ad6565b92915050565b600082825260208201905092915050565b600062000c0b8262000c79565b9050919050565b6000819050919050565b600062000c298262000bfe565b9050919050565b600062000c3d8262000bfe565b9050919050565b600062000c518262000bfe565b9050919050565b600062000c658262000bfe565b9050919050565b600081600b0b9050919050565b600073ffffffffffffffffffffffffffffffffffffffff82169050919050565b6000819050919050565b62000cae8162000c1c565b811462000cba57600080fd5b50565b62000cc88162000c30565b811462000cd457600080fd5b50565b62000ce28162000c44565b811462000cee57600080fd5b50565b62000cfc8162000c58565b811462000d0857600080fd5b50565b62000d168162000c6c565b811462000d2257600080fd5b50565b6133118062000d356000396000f3fe608060405234801561001057600080fd5b50600436106100ea5760003560e01c80637df1f1b91161008c578063bcb77e7c11610066578063bcb77e7c14610273578063d3112b2e1461028f578063d86ed3e5146102ae578063f851a440146102de576100ea565b80637df1f1b914610207578063884d1f4014610225578063889e2cd514610255576100ea565b806353c11f99116100c857806353c11f991461016d5780635f9e7d771461019d5780636861c302146101cd578063704b6c02146101eb576100ea565b8063230dbd29146100ef578063252e40b11461011f57806330d9c9151461013d575b600080fd5b61010960048036038101906101049190612216565b6102fc565b60405161011691906129d7565b60405180910390f35b61012761043b565b6040516101349190612b49565b60405180910390f35b61015760048036038101906101529190612166565b610443565b60405161016491906129d7565b60405180910390f35b61018760048036038101906101829190612216565b610480565b60405161019491906129d7565b60405180910390f35b6101b760048036038101906101b29190612166565b610598565b6040516101c491906129d7565b60405180910390f35b6101d56105d5565b6040516101e291906129bc565b60405180910390f35b6102056004803603810190610200919061207f565b6105e8565b005b61020f6106a1565b60405161021c91906128b8565b60405180910390f35b61023f600480360381019061023a9190612166565b6106c7565b60405161024c91906129d7565b60405180910390f35b61025d610704565b60405161026a91906128b8565b60405180910390f35b61028d600480360381019061028891906122f5565b61072a565b005b610297610c84565b6040516102a5929190612b20565b60405180910390f35b6102c860048036038101906102c39190612216565b610cd6565b6040516102d591906129d7565b60405180910390f35b6102e6610e3a565b6040516102f391906128b8565b60405180910390f35b6060898961030982610e64565b610348576040517f08c379a000000000000000000000000000000000000000000000000000000000815260040161033f90612bdb565b60405180910390fd5b61035181610ebe565b610390576040517f08c379a000000000000000000000000000000000000000000000000000000000815260040161038790612b9b565b60405180910390fd5b600260009054906101000a900473ffffffffffffffffffffffffffffffffffffffff1673ffffffffffffffffffffffffffffffffffffffff163373ffffffffffffffffffffffffffffffffffffffff1614610420576040517f08c379a000000000000000000000000000000000000000000000000000000000815260040161041790612c1b565b60405180910390fd5b61042a8585610f67565b925050509998505050505050505050565b6301e1338081565b60606040517f08c379a000000000000000000000000000000000000000000000000000000000815260040161047790612cbb565b60405180910390fd5b6060600260009054906101000a900473ffffffffffffffffffffffffffffffffffffffff1673ffffffffffffffffffffffffffffffffffffffff163373ffffffffffffffffffffffffffffffffffffffff1614610512576040517f08c379a000000000000000000000000000000000000000000000000000000000815260040161050990612c1b565b60405180910390fd5b61051b8a610e64565b158061052d575061052b89610ebe565b155b1561057e5782828080601f016020809104026020016040519081016040528093929190818152602001838380828437600081840152601f19601f82011690508083019250505050505050905061058b565b6105888383610f67565b90505b9998505050505050505050565b60606040517f08c379a00000000000000000000000000000000000000000000000000000000081526004016105cc90612bfb565b60405180910390fd5b600d60029054906101000a900460ff1681565b3373ffffffffffffffffffffffffffffffffffffffff16610607610e3a565b73ffffffffffffffffffffffffffffffffffffffff161461065d576040517f08c379a000000000000000000000000000000000000000000000000000000000815260040161065490612cdb565b60405180910390fd5b80600860006101000a81548173ffffffffffffffffffffffffffffffffffffffff021916908373ffffffffffffffffffffffffffffffffffffffff16021790555050565b6007600c9054906101000a900473ffffffffffffffffffffffffffffffffffffffff1681565b60606040517f08c379a00000000000000000000000000000000000000000000000000000000081526004016106fb90612c9b565b60405180910390fd5b600560009054906101000a900473ffffffffffffffffffffffffffffffffffffffff1681565b600560009054906101000a900473ffffffffffffffffffffffffffffffffffffffff1673ffffffffffffffffffffffffffffffffffffffff168173ffffffffffffffffffffffffffffffffffffffff16146107ba576040517f08c379a00000000000000000000000000000000000000000000000000000000081526004016107b190612c7b565b60405180910390fd5b600d60029054906101000a900460ff16610809576040517f08c379a000000000000000000000000000000000000000000000000000000000815260040161080090612cfb565b60405180910390fd5b81600b0b8173ffffffffffffffffffffffffffffffffffffffff166370a08231306040518263ffffffff1660e01b815260040161084691906128b8565b60206040518083038186803b15801561085e57600080fd5b505afa158015610872573d6000803e3d6000fd5b505050506040513d601f19601f820116820180604052508101906108969190612331565b600560149054906101000a9004600b0b6108b09190612f82565b600b0b136108f3576040517f08c379a00000000000000000000000000000000000000000000000000000000081526004016108ea90612bbb565b60405180910390fd5b600082600b0b90508173ffffffffffffffffffffffffffffffffffffffff166323b872dd3330846040518463ffffffff1660e01b8152600401610938939291906128fc565b602060405180830381600087803b15801561095257600080fd5b505af1158015610966573d6000803e3d6000fd5b505050506040513d601f19601f8201168201806040525081019061098a91906120a8565b506000600960003373ffffffffffffffffffffffffffffffffffffffff1673ffffffffffffffffffffffffffffffffffffffff16815260200190815260200160002060009054906101000a9004600b0b905083600960003373ffffffffffffffffffffffffffffffffffffffff1673ffffffffffffffffffffffffffffffffffffffff16815260200190815260200160002060009054906101000a9004600b0b610a349190612da9565b600960003373ffffffffffffffffffffffffffffffffffffffff1673ffffffffffffffffffffffffffffffffffffffff16815260200190815260200160002060006101000a8154816bffffffffffffffffffffffff0219169083600b0b6bffffffffffffffffffffffff16021790555080600b0b600960003373ffffffffffffffffffffffffffffffffffffffff1673ffffffffffffffffffffffffffffffffffffffff16815260200190815260200160002060009054906101000a9004600b0b600b0b13610b38576040517f08c379a0000000000000000000000000000000000000000000000000000000008152600401610b2f90612c5b565b60405180910390fd5b600a60003373ffffffffffffffffffffffffffffffffffffffff1673ffffffffffffffffffffffffffffffffffffffff16815260200190815260200160002060009054906101000a900460ff16610c4557600b339080600181540180825580915050600190039060005260206000200160009091909190916101000a81548173ffffffffffffffffffffffffffffffffffffffff021916908373ffffffffffffffffffffffffffffffffffffffff1602179055506001600a60003373ffffffffffffffffffffffffffffffffffffffff1673ffffffffffffffffffffffffffffffffffffffff16815260200190815260200160002060006101000a81548160ff0219169083151502179055505b7f691fdc2f833f8d90e23f9b6db1c8e9da787dbe39c50460cef23b02c7a1a55d613385604051610c76929190612933565b60405180910390a150505050565b60008060000160009054906101000a900473ffffffffffffffffffffffffffffffffffffffff16908060010160009054906101000a900473ffffffffffffffffffffffffffffffffffffffff16905082565b60608989610ce382610e64565b610d22576040517f08c379a0000000000000000000000000000000000000000000000000000000008152600401610d1990612bdb565b60405180910390fd5b610d2b81610ebe565b610d6a576040517f08c379a0000000000000000000000000000000000000000000000000000000008152600401610d6190612b9b565b60405180910390fd5b600260009054906101000a900473ffffffffffffffffffffffffffffffffffffffff1673ffffffffffffffffffffffffffffffffffffffff163373ffffffffffffffffffffffffffffffffffffffff1614610dfa576040517f08c379a0000000000000000000000000000000000000000000000000000000008152600401610df190612c1b565b60405180910390fd5b600d60009054906101000a900460ff16610e1f57610e16611454565b610e1e611935565b5b610e298585610f67565b925050509998505050505050505050565b6000600860009054906101000a900473ffffffffffffffffffffffffffffffffffffffff16905090565b6000600460009054906101000a900473ffffffffffffffffffffffffffffffffffffffff1673ffffffffffffffffffffffffffffffffffffffff168273ffffffffffffffffffffffffffffffffffffffff16149050919050565b60007fa9214cc96615e0085d3bb077758db69497dc2dce3b2b1e97bc93c3d18d83efd38273ffffffffffffffffffffffffffffffffffffffff16637730599e6040518163ffffffff1660e01b815260040160206040518083038186803b158015610f2757600080fd5b505afa158015610f3b573d6000803e3d6000fd5b505050506040513d601f19601f82011682018060405250810190610f5f91906120d1565b149050919050565b60606000600360009054906101000a900473ffffffffffffffffffffffffffffffffffffffff1673ffffffffffffffffffffffffffffffffffffffff1663e6a1e888600460009054906101000a900473ffffffffffffffffffffffffffffffffffffffff16306007600c9054906101000a900473ffffffffffffffffffffffffffffffffffffffff166040518463ffffffff1660e01b815260040161100e93929190612a51565b60806040518083038186803b15801561102657600080fd5b505afa15801561103a573d6000803e3d6000fd5b505050506040513d601f19601f8201168201806040525081019061105e919061235a565b505091505083838080601f016020809104026020016040519081016040528093929190818152602001838380828437600081840152601f19601f8201169050808301925050505050505091506000600b80549050905060011515600d60019054906101000a900460ff161515141561130057600080600190505b82811161125f57600c6000600b6001846110f29190613002565b81548110611129577f4e487b7100000000000000000000000000000000000000000000000000000000600052603260045260246000fd5b9060005260206000200160009054906101000a900473ffffffffffffffffffffffffffffffffffffffff1673ffffffffffffffffffffffffffffffffffffffff1673ffffffffffffffffffffffffffffffffffffffff16815260200190815260200160002060009054906101000a9004600b0b915061124a85600b6001846111b19190613002565b815481106111e8577f4e487b7100000000000000000000000000000000000000000000000000000000600052603260045260246000fd5b9060005260206000200160009054906101000a900473ffffffffffffffffffffffffffffffffffffffff16600460009054906101000a900473ffffffffffffffffffffffffffffffffffffffff16856000611a5390949392919063ffffffff16565b945080806112579061316a565b9150506110d8565b506000600d60016101000a81548160ff0219169083151502179055507fcbe3ac4194df6f302da11c2a67ee9e6e21a29fc1f90339c8d278de43b0663c4a6007600c9054906101000a900473ffffffffffffffffffffffffffffffffffffffff1684600460009054906101000a900473ffffffffffffffffffffffffffffffffffffffff166040516112f29392919061295c565b60405180910390a15061144c565b600082600b0b141561143c576000600190505b8181116113db576113c68430600b60018561132e9190613002565b81548110611365577f4e487b7100000000000000000000000000000000000000000000000000000000600052603260045260246000fd5b9060005260206000200160009054906101000a900473ffffffffffffffffffffffffffffffffffffffff16600460009054906101000a900473ffffffffffffffffffffffffffffffffffffffff166000611c2d90949392919063ffffffff16565b935080806113d39061316a565b915050611313565b507fdbf5b5f6744d1c5fdc375aafa985ba100624da54b7fc593147b6784951bdb16b6007600c9054906101000a900473ffffffffffffffffffffffffffffffffffffffff163060405161142f9291906128d3565b60405180910390a161144b565b600860149054906101000a9050505b5b505092915050565b6000600460009054906101000a900473ffffffffffffffffffffffffffffffffffffffff1673ffffffffffffffffffffffffffffffffffffffff166370a08231306040518263ffffffff1660e01b81526004016114b191906128b8565b60206040518083038186803b1580156114c957600080fd5b505afa1580156114dd573d6000803e3d6000fd5b505050506040513d601f19601f820116820180604052508101906115019190612331565b11611541576040517f08c379a000000000000000000000000000000000000000000000000000000000815260040161153890612c3b565b60405180910390fd5b6001600d60026101000a81548160ff021916908315150217905561159a576040517f08c379a000000000000000000000000000000000000000000000000000000000815260040161159190612cfb565b60405180910390fd5b600460009054906101000a900473ffffffffffffffffffffffffffffffffffffffff1673ffffffffffffffffffffffffffffffffffffffff166370a08231306040518263ffffffff1660e01b81526004016115f591906128b8565b60206040518083038186803b15801561160d57600080fd5b505afa158015611621573d6000803e3d6000fd5b505050506040513d601f19601f820116820180604052508101906116459190612331565b600660006101000a8154816bffffffffffffffffffffffff0219169083600b0b6bffffffffffffffffffffffff1602179055506000600d60026101000a81548160ff0219169083151502179055506001600d60006101000a81548160ff0219169083151502179055506000600660009054906101000a9004600b0b600b0b9050600460009054906101000a900473ffffffffffffffffffffffffffffffffffffffff1673ffffffffffffffffffffffffffffffffffffffff1663a9059cbb6007600c9054906101000a900473ffffffffffffffffffffffffffffffffffffffff16836040518363ffffffff1660e01b8152600401611744929190612993565b602060405180830381600087803b15801561175e57600080fd5b505af1158015611772573d6000803e3d6000fd5b505050506040513d601f19601f8201168201806040525081019061179691906120a8565b506000600360009054906101000a900473ffffffffffffffffffffffffffffffffffffffff1673ffffffffffffffffffffffffffffffffffffffff1663e6a1e888600460009054906101000a900473ffffffffffffffffffffffffffffffffffffffff16306007600c9054906101000a900473ffffffffffffffffffffffffffffffffffffffff166040518463ffffffff1660e01b815260040161183c93929190612a51565b60806040518083038186803b15801561185457600080fd5b505afa158015611868573d6000803e3d6000fd5b505050506040513d601f19601f8201168201806040525081019061188c919061235a565b505091505080600860146101000a8154816bffffffffffffffffffffffff0219169083600b0b6bffffffffffffffffffffffff1602179055507fc652a52dff6bd8ff0fcb2ebdc30f03530dc758d04de610d479d09699de863c52600660009054906101000a9004600b0b6007600c9054906101000a900473ffffffffffffffffffffffffffffffffffffffff163060405161192993929190612b64565b60405180910390a15050565b6000600b8054905090506000600190505b818111611a4f576000600b60018361195e9190613002565b81548110611995577f4e487b7100000000000000000000000000000000000000000000000000000000600052603260045260246000fd5b9060005260206000200160009054906101000a900473ffffffffffffffffffffffffffffffffffffffff1690506119cb81611e07565b600c60008373ffffffffffffffffffffffffffffffffffffffff1673ffffffffffffffffffffffffffffffffffffffff16815260200190815260200160002060006101000a8154816bffffffffffffffffffffffff0219169083600b0b6bffffffffffffffffffffffff160217905550508080611a479061316a565b915050611946565b5050565b60608560000160009054906101000a900473ffffffffffffffffffffffffffffffffffffffff1673ffffffffffffffffffffffffffffffffffffffff16634329d2938760010160009054906101000a900473ffffffffffffffffffffffffffffffffffffffff166362fc305e60e01b868887600067ffffffffffffffff811115611b06577f4e487b7100000000000000000000000000000000000000000000000000000000600052604160045260246000fd5b6040519080825280601f01601f191660200182016040528015611b385781602001600182028036833780820191505090505b50604051602401611b4c9493929190612ad4565b604051602081830303815290604052907bffffffffffffffffffffffffffffffffffffffffffffffffffffffff19166020820180517bffffffffffffffffffffffffffffffffffffffffffffffffffffffff8381831617835250505050886040518463ffffffff1660e01b8152600401611bc8939291906129f9565b600060405180830381600087803b158015611be257600080fd5b505af1158015611bf6573d6000803e3d6000fd5b505050506040513d6000823e3d601f19601f82011682018060405250810190611c1f91906120fa565b508091505095945050505050565b60608560000160009054906101000a900473ffffffffffffffffffffffffffffffffffffffff1673ffffffffffffffffffffffffffffffffffffffff16634329d2938760010160009054906101000a900473ffffffffffffffffffffffffffffffffffffffff1663b4b333c660e01b858888600067ffffffffffffffff811115611ce0577f4e487b7100000000000000000000000000000000000000000000000000000000600052604160045260246000fd5b6040519080825280601f01601f191660200182016040528015611d125781602001600182028036833780820191505090505b50604051602401611d269493929190612a88565b604051602081830303815290604052907bffffffffffffffffffffffffffffffffffffffffffffffffffffffff19166020820180517bffffffffffffffffffffffffffffffffffffffffffffffffffffffff8381831617835250505050886040518463ffffffff1660e01b8152600401611da2939291906129f9565b600060405180830381600087803b158015611dbc57600080fd5b505af1158015611dd0573d6000803e3d6000fd5b505050506040513d6000823e3d601f19601f82011682018060405250810190611df991906120fa565b508091505095945050505050565b6000806127106006600c9054906101000a9004600b0b600660009054906101000a9004600b0b611e379190612e93565b611e419190612e29565b90506000600760009054906101000a9004600b0b61016d600660009054906101000a9004600b0b611e729190612e93565b611e7c9190612e29565b905060008183611e8c9190612da9565b90506000600660009054906101000a9004600b0b82600960008973ffffffffffffffffffffffffffffffffffffffff1673ffffffffffffffffffffffffffffffffffffffff16815260200190815260200160002060009054906101000a9004600b0b611ef89190612e93565b611f029190612e29565b905060006301e1338082611f169190612e29565b90508095505050505050919050565b6000611f38611f3384612d4c565b612d1b565b905082815260208101848484011115611f5057600080fd5b611f5b848285613137565b509392505050565b600081359050611f7281613251565b92915050565b600081519050611f8781613268565b92915050565b600081359050611f9c8161327f565b92915050565b600081519050611fb18161327f565b92915050565b60008083601f840112611fc957600080fd5b8235905067ffffffffffffffff811115611fe257600080fd5b602083019150836001820283011115611ffa57600080fd5b9250929050565b600082601f83011261201257600080fd5b8151612022848260208601611f25565b91505092915050565b60008135905061203a81613296565b92915050565b60008135905061204f816132ad565b92915050565b600081519050612064816132ad565b92915050565b600081519050612079816132c4565b92915050565b60006020828403121561209157600080fd5b600061209f84828501611f63565b91505092915050565b6000602082840312156120ba57600080fd5b60006120c884828501611f78565b91505092915050565b6000602082840312156120e357600080fd5b60006120f184828501611fa2565b91505092915050565b6000806040838503121561210d57600080fd5b600083015167ffffffffffffffff81111561212757600080fd5b61213385828601612001565b925050602083015167ffffffffffffffff81111561215057600080fd5b61215c85828601612001565b9150509250929050565b600080600080600080600060a0888a03121561218157600080fd5b600061218f8a828b0161202b565b97505060206121a08a828b01611f63565b96505060406121b18a828b01611f8d565b955050606088013567ffffffffffffffff8111156121ce57600080fd5b6121da8a828b01611fb7565b9450945050608088013567ffffffffffffffff8111156121f957600080fd5b6122058a828b01611fb7565b925092505092959891949750929550565b600080600080600080600080600060c08a8c03121561223457600080fd5b60006122428c828d0161202b565b99505060206122538c828d01611f63565b98505060406122648c828d01611f8d565b97505060608a013567ffffffffffffffff81111561228157600080fd5b61228d8c828d01611fb7565b965096505060808a013567ffffffffffffffff8111156122ac57600080fd5b6122b88c828d01611fb7565b945094505060a08a013567ffffffffffffffff8111156122d757600080fd5b6122e38c828d01611fb7565b92509250509295985092959850929598565b6000806040838503121561230857600080fd5b600061231685828601612040565b925050602061232785828601611f63565b9150509250929050565b60006020828403121561234357600080fd5b60006123518482850161206a565b91505092915050565b6000806000806080858703121561237057600080fd5b600061237e8782880161206a565b945050602061238f87828801612055565b93505060406123a08782880161206a565b92505060606123b18782880161206a565b91505092959194509250565b6123c681613036565b82525050565b6123d581613048565b82525050565b60006123e682612d7c565b6123f08185612d87565b9350612400818560208601613137565b61240981613240565b840191505092915050565b61241d816130a7565b82525050565b61242c816130cb565b82525050565b61243b816130ef565b82525050565b61244a81613113565b82525050565b61245981613070565b82525050565b600061246c602183612d98565b91507f5265646972656374416c6c3a206f6e6c7920434641763120737570706f72746560008301527f64000000000000000000000000000000000000000000000000000000000000006020830152604082019050919050565b60006124d2602d83612d98565b91507f4e6f7420656e6f756768206c6f616e20636170616369747920666f722064657060008301527f6f736974207468697320626967000000000000000000000000000000000000006020830152604082019050919050565b6000612538601f83612d98565b91507f5265646972656374416c6c3a206e6f7420616363657074656420746f6b656e006000830152602082019050919050565b6000612578603383612d98565b91507f556e737570706f727465642063616c6c6261636b202d20204265666f7265204160008301527f677265656d656e74205465726d696e61746564000000000000000000000000006020830152604082019050919050565b60006125de602283612d98565b91507f5265646972656374416c6c3a20737570706f7274206f6e6c79206f6e6520686f60008301527f73740000000000000000000000000000000000000000000000000000000000006020830152604082019050919050565b6000612644600283612d87565b91507f30780000000000000000000000000000000000000000000000000000000000006000830152602082019050919050565b6000612684602f83612d98565b91507f636f6e747261637420646f6573206e6f74206f776e20616e79206f662074686560008301527f20616363657074656420746f6b656e00000000000000000000000000000000006020830152604082019050919050565b60006126ea600983612d98565b91507f6f76657220666c6f7700000000000000000000000000000000000000000000006000830152602082019050919050565b600061272a601a83612d98565b91507f43616e206e6f74206465706f736974207468697320746f6b656e0000000000006000830152602082019050919050565b600061276a602f83612d98565b91507f556e737570706f727465642063616c6c6261636b202d204265666f726520416760008301527f7265656d656e74207570646174656400000000000000000000000000000000006020830152604082019050919050565b60006127d0602f83612d98565b91507f556e737570706f727465642063616c6c6261636b202d204265666f726520416760008301527f7265656d656e74204372656174656400000000000000000000000000000000006020830152604082019050919050565b6000612836601783612d98565b91507f63616c6c6572206973206e6f74207468652061646d696e0000000000000000006000830152602082019050919050565b6000612876601283612d98565b91507f636c6f73656420746f206465706f7369747300000000000000000000000000006000830152602082019050919050565b6128b28161309d565b82525050565b60006020820190506128cd60008301846123bd565b92915050565b60006040820190506128e860008301856123bd565b6128f560208301846123bd565b9392505050565b600060608201905061291160008301866123bd565b61291e60208301856123bd565b61292b60408301846128a9565b949350505050565b600060408201905061294860008301856123bd565b6129556020830184612450565b9392505050565b600060608201905061297160008301866123bd565b61297e6020830185612450565b61298b60408301846123bd565b949350505050565b60006040820190506129a860008301856123bd565b6129b560208301846128a9565b9392505050565b60006020820190506129d160008301846123cc565b92915050565b600060208201905081810360008301526129f181846123db565b905092915050565b6000608082019050612a0e6000830186612414565b8181036020830152612a2081856123db565b90508181036040830152612a3381612637565b90508181036060830152612a4781846123db565b9050949350505050565b6000606082019050612a666000830186612423565b612a7360208301856123bd565b612a8060408301846123bd565b949350505050565b6000608082019050612a9d6000830187612432565b612aaa60208301866123bd565b612ab760408301856123bd565b8181036060830152612ac981846123db565b905095945050505050565b6000608082019050612ae96000830187612432565b612af660208301866123bd565b612b036040830185612450565b8181036060830152612b1581846123db565b905095945050505050565b6000604082019050612b356000830185612441565b612b426020830184612414565b9392505050565b6000602082019050612b5e6000830184612450565b92915050565b6000606082019050612b796000830186612450565b612b8660208301856123bd565b612b9360408301846123bd565b949350505050565b60006020820190508181036000830152612bb48161245f565b9050919050565b60006020820190508181036000830152612bd4816124c5565b9050919050565b60006020820190508181036000830152612bf48161252b565b9050919050565b60006020820190508181036000830152612c148161256b565b9050919050565b60006020820190508181036000830152612c34816125d1565b9050919050565b60006020820190508181036000830152612c5481612677565b9050919050565b60006020820190508181036000830152612c74816126dd565b9050919050565b60006020820190508181036000830152612c948161271d565b9050919050565b60006020820190508181036000830152612cb48161275d565b9050919050565b60006020820190508181036000830152612cd4816127c3565b9050919050565b60006020820190508181036000830152612cf481612829565b9050919050565b60006020820190508181036000830152612d1481612869565b9050919050565b6000604051905081810181811067ffffffffffffffff82111715612d4257612d41613211565b5b8060405250919050565b600067ffffffffffffffff821115612d6757612d66613211565b5b601f19601f8301169050602081019050919050565b600081519050919050565b600082825260208201905092915050565b600082825260208201905092915050565b6000612db482613070565b9150612dbf83613070565b9250816b7fffffffffffffffffffffff03831360008312151615612de657612de56131b3565b5b817fffffffffffffffffffffffffffffffffffffffff800000000000000000000000038312600083121615612e1e57612e1d6131b3565b5b828201905092915050565b6000612e3482613070565b9150612e3f83613070565b925082612e4f57612e4e6131e2565b5b600160000383147fffffffffffffffffffffffffffffffffffffffff80000000000000000000000083141615612e8857612e876131b3565b5b828205905092915050565b6000612e9e82613070565b9150612ea983613070565b9250826b7fffffffffffffffffffffff0482116000841360008413161615612ed457612ed36131b3565b5b817fffffffffffffffffffffffffffffffffffffffff8000000000000000000000000583126000841260008413161615612f1157612f106131b3565b5b827fffffffffffffffffffffffffffffffffffffffff8000000000000000000000000582126000841360008412161615612f4e57612f4d6131b3565b5b826b7fffffffffffffffffffffff0582126000841260008412161615612f7757612f766131b3565b5b828202905092915050565b6000612f8d82613070565b9150612f9883613070565b9250827fffffffffffffffffffffffffffffffffffffffff80000000000000000000000001821260008412151615612fd357612fd26131b3565b5b826b7fffffffffffffffffffffff018213600084121615612ff757612ff66131b3565b5b828203905092915050565b600061300d8261309d565b91506130188361309d565b92508282101561302b5761302a6131b3565b5b828203905092915050565b60006130418261307d565b9050919050565b60008115159050919050565b6000819050919050565b600061306982613036565b9050919050565b600081600b0b9050919050565b600073ffffffffffffffffffffffffffffffffffffffff82169050919050565b6000819050919050565b60006130b2826130b9565b9050919050565b60006130c48261307d565b9050919050565b60006130d6826130dd565b9050919050565b60006130e88261307d565b9050919050565b60006130fa82613101565b9050919050565b600061310c8261307d565b9050919050565b600061311e82613125565b9050919050565b60006131308261307d565b9050919050565b60005b8381101561315557808201518184015260208101905061313a565b83811115613164576000848401525b50505050565b60006131758261309d565b91507fffffffffffffffffffffffffffffffffffffffffffffffffffffffffffffffff8214156131a8576131a76131b3565b5b600182019050919050565b7f4e487b7100000000000000000000000000000000000000000000000000000000600052601160045260246000fd5b7f4e487b7100000000000000000000000000000000000000000000000000000000600052601260045260246000fd5b7f4e487b7100000000000000000000000000000000000000000000000000000000600052604160045260246000fd5b6000601f19601f8301169050919050565b61325a81613036565b811461326557600080fd5b50565b61327181613048565b811461327c57600080fd5b50565b61328881613054565b811461329357600080fd5b50565b61329f8161305e565b81146132aa57600080fd5b50565b6132b681613070565b81146132c157600080fd5b50565b6132cd8161309d565b81146132d857600080fd5b5056fea2646970667358221220d37ba8d94926c67bcd7d4d00e68f772eab670b561e8c706dce02b9f6be7e906564736f6c63430008000033",
  "linkReferences": {},
  "deployedLinkReferences": {}
}