{
  "_format": "hh-sol-artifact-1",
  "contractName": "Bond",
  "sourceName": "contracts/Bond.sol",
  "abi": [
    {
      "inputs": [
        {
          "internalType": "contract ISuperfluid",
          "name": "host",
          "type": "address"
        },
        {
          "internalType": "contract IConstantFlowAgreementV1",
          "name": "cfa",
          "type": "address"
        },
        {
          "internalType": "contract ISuperToken",
          "name": "acceptedToken",
          "type": "address"
        },
        {
          "internalType": "int96",
          "name": "fundingTarget",
          "type": "int96"
        },
        {
          "internalType": "int96",
          "name": "fundingRate",
          "type": "int96"
        },
        {
          "internalType": "int96",
          "name": "loanTerm",
          "type": "int96"
        }
      ],
      "stateMutability": "nonpayable",
      "type": "constructor"
    },
    {
      "anonymous": false,
      "inputs": [
        {
          "indexed": false,
          "internalType": "address",
          "name": "borrower",
          "type": "address"
        },
        {
          "indexed": false,
          "internalType": "int96",
          "name": "borrowerFlowRate",
          "type": "int96"
        },
        {
          "indexed": false,
          "internalType": "address",
          "name": "acceptedToken",
          "type": "address"
        }
      ],
      "name": "InitialSetup",
      "type": "event"
    },
    {
      "anonymous": false,
      "inputs": [
        {
          "indexed": false,
          "internalType": "int96",
          "name": "_amountRaised",
          "type": "int96"
        },
        {
          "indexed": false,
          "internalType": "address",
          "name": "to",
          "type": "address"
        },
        {
          "indexed": false,
          "internalType": "address",
          "name": "from",
          "type": "address"
        }
      ],
      "name": "TransferAllToBorrower",
      "type": "event"
    },
    {
      "anonymous": false,
      "inputs": [
        {
          "indexed": false,
          "internalType": "address",
          "name": "from",
          "type": "address"
        },
        {
          "indexed": false,
          "internalType": "address",
          "name": "to",
          "type": "address"
        }
      ],
      "name": "cfaTerminated",
      "type": "event"
    },
    {
      "anonymous": false,
      "inputs": [
        {
          "indexed": false,
          "internalType": "address",
          "name": "depositor",
          "type": "address"
        },
        {
          "indexed": false,
          "internalType": "int96",
          "name": "amount",
          "type": "int96"
        }
      ],
      "name": "depositEvent",
      "type": "event"
    },
    {
      "inputs": [],
      "name": "_amountRaised",
      "outputs": [
        {
          "internalType": "int96",
          "name": "",
          "type": "int96"
        }
      ],
      "stateMutability": "view",
      "type": "function"
    },
    {
      "inputs": [],
      "name": "_fundingRate",
      "outputs": [
        {
          "internalType": "int96",
          "name": "",
          "type": "int96"
        }
      ],
      "stateMutability": "view",
      "type": "function"
    },
    {
      "inputs": [],
      "name": "_fundingTarget",
      "outputs": [
        {
          "internalType": "int96",
          "name": "",
          "type": "int96"
        }
      ],
      "stateMutability": "view",
      "type": "function"
    },
    {
      "inputs": [],
      "name": "_loanTerm",
      "outputs": [
        {
          "internalType": "int96",
          "name": "",
          "type": "int96"
        }
      ],
      "stateMutability": "view",
      "type": "function"
    },
    {
      "inputs": [],
      "name": "acceptedTokenAddress",
      "outputs": [
        {
          "internalType": "address",
          "name": "",
          "type": "address"
        }
      ],
      "stateMutability": "view",
      "type": "function"
    },
    {
      "inputs": [],
      "name": "admin",
      "outputs": [
        {
          "internalType": "address",
          "name": "",
          "type": "address"
        }
      ],
      "stateMutability": "view",
      "type": "function"
    },
    {
      "inputs": [
        {
          "internalType": "contract ISuperToken",
          "name": "_superToken",
          "type": "address"
        },
        {
          "internalType": "address",
          "name": "_agreementClass",
          "type": "address"
        },
        {
          "internalType": "bytes32",
          "name": "",
          "type": "bytes32"
        },
        {
          "internalType": "bytes",
          "name": "",
          "type": "bytes"
        },
        {
          "internalType": "bytes",
          "name": "",
          "type": "bytes"
        },
        {
          "internalType": "bytes",
          "name": "_ctx",
          "type": "bytes"
        }
      ],
      "name": "afterAgreementCreated",
      "outputs": [
        {
          "internalType": "bytes",
          "name": "newCtx",
          "type": "bytes"
        }
      ],
      "stateMutability": "nonpayable",
      "type": "function"
    },
    {
      "inputs": [
        {
          "internalType": "contract ISuperToken",
          "name": "_superToken",
          "type": "address"
        },
        {
          "internalType": "address",
          "name": "_agreementClass",
          "type": "address"
        },
        {
          "internalType": "bytes32",
          "name": "",
          "type": "bytes32"
        },
        {
          "internalType": "bytes",
          "name": "",
          "type": "bytes"
        },
        {
          "internalType": "bytes",
          "name": "",
          "type": "bytes"
        },
        {
          "internalType": "bytes",
          "name": "_ctx",
          "type": "bytes"
        }
      ],
      "name": "afterAgreementTerminated",
      "outputs": [
        {
          "internalType": "bytes",
          "name": "newCtx",
          "type": "bytes"
        }
      ],
      "stateMutability": "nonpayable",
      "type": "function"
    },
    {
      "inputs": [
        {
          "internalType": "contract ISuperToken",
          "name": "_superToken",
          "type": "address"
        },
        {
          "internalType": "address",
          "name": "_agreementClass",
          "type": "address"
        },
        {
          "internalType": "bytes32",
          "name": "",
          "type": "bytes32"
        },
        {
          "internalType": "bytes",
          "name": "",
          "type": "bytes"
        },
        {
          "internalType": "bytes",
          "name": "",
          "type": "bytes"
        },
        {
          "internalType": "bytes",
          "name": "_ctx",
          "type": "bytes"
        }
      ],
      "name": "afterAgreementUpdated",
      "outputs": [
        {
          "internalType": "bytes",
          "name": "newCtx",
          "type": "bytes"
        }
      ],
      "stateMutability": "nonpayable",
      "type": "function"
    },
    {
      "inputs": [
        {
          "internalType": "contract ISuperToken",
          "name": "",
          "type": "address"
        },
        {
          "internalType": "address",
          "name": "",
          "type": "address"
        },
        {
          "internalType": "bytes32",
          "name": "",
          "type": "bytes32"
        },
        {
          "internalType": "bytes",
          "name": "",
          "type": "bytes"
        },
        {
          "internalType": "bytes",
          "name": "",
          "type": "bytes"
        }
      ],
      "name": "beforeAgreementCreated",
      "outputs": [
        {
          "internalType": "bytes",
          "name": "",
          "type": "bytes"
        }
      ],
      "stateMutability": "view",
      "type": "function"
    },
    {
      "inputs": [
        {
          "internalType": "contract ISuperToken",
          "name": "",
          "type": "address"
        },
        {
          "internalType": "address",
          "name": "",
          "type": "address"
        },
        {
          "internalType": "bytes32",
          "name": "",
          "type": "bytes32"
        },
        {
          "internalType": "bytes",
          "name": "",
          "type": "bytes"
        },
        {
          "internalType": "bytes",
          "name": "",
          "type": "bytes"
        }
      ],
      "name": "beforeAgreementTerminated",
      "outputs": [
        {
          "internalType": "bytes",
          "name": "",
          "type": "bytes"
        }
      ],
      "stateMutability": "view",
      "type": "function"
    },
    {
      "inputs": [
        {
          "internalType": "contract ISuperToken",
          "name": "",
          "type": "address"
        },
        {
          "internalType": "address",
          "name": "",
          "type": "address"
        },
        {
          "internalType": "bytes32",
          "name": "",
          "type": "bytes32"
        },
        {
          "internalType": "bytes",
          "name": "",
          "type": "bytes"
        },
        {
          "internalType": "bytes",
          "name": "",
          "type": "bytes"
        }
      ],
      "name": "beforeAgreementUpdated",
      "outputs": [
        {
          "internalType": "bytes",
          "name": "",
          "type": "bytes"
        }
      ],
      "stateMutability": "view",
      "type": "function"
    },
    {
      "inputs": [],
      "name": "borrower",
      "outputs": [
        {
          "internalType": "address",
          "name": "",
          "type": "address"
        }
      ],
      "stateMutability": "view",
      "type": "function"
    },
    {
      "inputs": [],
      "name": "cfaV1",
      "outputs": [
        {
          "internalType": "contract ISuperfluid",
          "name": "host",
          "type": "address"
        },
        {
          "internalType": "contract IConstantFlowAgreementV1",
          "name": "cfa",
          "type": "address"
        }
      ],
      "stateMutability": "view",
      "type": "function"
    },
    {
      "inputs": [
        {
          "internalType": "int96",
          "name": "amount",
          "type": "int96"
        },
        {
          "internalType": "address",
          "name": "tokenAddress",
          "type": "address"
        }
      ],
      "name": "deposit",
      "outputs": [],
      "stateMutability": "nonpayable",
      "type": "function"
    },
    {
      "inputs": [],
      "name": "openToDeposits",
      "outputs": [
        {
          "internalType": "bool",
          "name": "",
          "type": "bool"
        }
      ],
      "stateMutability": "view",
      "type": "function"
    },
    {
      "inputs": [],
      "name": "secondsPerYear",
      "outputs": [
        {
          "internalType": "int96",
          "name": "",
          "type": "int96"
        }
      ],
      "stateMutability": "view",
      "type": "function"
    },
    {
      "inputs": [
        {
          "internalType": "address",
          "name": "newAdmin",
          "type": "address"
        }
      ],
      "name": "setAdmin",
      "outputs": [],
      "stateMutability": "nonpayable",
      "type": "function"
    }
  ],
  "bytecode": "0x608060405273870ac8121ba4a31de8e5d91675edf3f937b8d7e9600860006101000a81548173ffffffffffffffffffffffffffffffffffffffff021916908373ffffffffffffffffffffffffffffffffffffffff1602179055503480156200006657600080fd5b50604051620041363803806200413683398181016040528101906200008c919062000831565b600073ffffffffffffffffffffffffffffffffffffffff168673ffffffffffffffffffffffffffffffffffffffff161415620000ff576040517f08c379a0000000000000000000000000000000000000000000000000000000008152600401620000f69062000bae565b60405180910390fd5b600073ffffffffffffffffffffffffffffffffffffffff168573ffffffffffffffffffffffffffffffffffffffff16141562000172576040517f08c379a0000000000000000000000000000000000000000000000000000000008152600401620001699062000b6a565b60405180910390fd5b600073ffffffffffffffffffffffffffffffffffffffff168473ffffffffffffffffffffffffffffffffffffffff161415620001e5576040517f08c379a0000000000000000000000000000000000000000000000000000000008152600401620001dc9062000b04565b60405180910390fd5b600081600b0b136200022e576040517f08c379a0000000000000000000000000000000000000000000000000000000008152600401620002259062000b48565b60405180910390fd5b600082600b0b1362000277576040517f08c379a00000000000000000000000000000000000000000000000000000000081526004016200026e9062000b26565b60405180910390fd5b600083600b0b13620002c0576040517f08c379a0000000000000000000000000000000000000000000000000000000008152600401620002b79062000b8c565b60405180910390fd5b85600260006101000a81548173ffffffffffffffffffffffffffffffffffffffff021916908373ffffffffffffffffffffffffffffffffffffffff1602179055508573ffffffffffffffffffffffffffffffffffffffff1663b6d200de7fa9214cc96615e0085d3bb077758db69497dc2dce3b2b1e97bc93c3d18d83efd36040518263ffffffff1660e01b81526004016200035c919062000ae7565b60206040518083038186803b1580156200037557600080fd5b505afa1580156200038a573d6000803e3d6000fd5b505050506040513d601f19601f82011682018060405250810190620003b0919062000805565b600360006101000a81548173ffffffffffffffffffffffffffffffffffffffff021916908373ffffffffffffffffffffffffffffffffffffffff16021790555083600460006101000a81548173ffffffffffffffffffffffffffffffffffffffff021916908373ffffffffffffffffffffffffffffffffffffffff160217905550600460009054906101000a900473ffffffffffffffffffffffffffffffffffffffff16600560006101000a81548173ffffffffffffffffffffffffffffffffffffffff021916908373ffffffffffffffffffffffffffffffffffffffff16021790555082600560146101000a8154816bffffffffffffffffffffffff0219169083600b0b6bffffffffffffffffffffffff160217905550816006600c6101000a8154816bffffffffffffffffffffffff0219169083600b0b6bffffffffffffffffffffffff16021790555080600760006101000a8154816bffffffffffffffffffffffff0219169083600b0b6bffffffffffffffffffffffff1602179055506001600d60026101000a81548160ff0219169083151502179055506000600d60006101000a81548160ff021916908315150217905550336007600c6101000a81548173ffffffffffffffffffffffffffffffffffffffff021916908373ffffffffffffffffffffffffffffffffffffffff1602179055506001600d60016101000a81548160ff0219169083151502179055506040518060400160405280600260009054906101000a900473ffffffffffffffffffffffffffffffffffffffff1673ffffffffffffffffffffffffffffffffffffffff168152602001600360009054906101000a900473ffffffffffffffffffffffffffffffffffffffff1673ffffffffffffffffffffffffffffffffffffffff168152506000808201518160000160006101000a81548173ffffffffffffffffffffffffffffffffffffffff021916908373ffffffffffffffffffffffffffffffffffffffff16021790555060208201518160010160006101000a81548173ffffffffffffffffffffffffffffffffffffffff021916908373ffffffffffffffffffffffffffffffffffffffff160217905550905050600064100000000064040000000064010000000060011717179050600260009054906101000a900473ffffffffffffffffffffffffffffffffffffffff1673ffffffffffffffffffffffffffffffffffffffff1663ad3915c8826040518263ffffffff1660e01b815260040162000751919062000bd0565b600060405180830381600087803b1580156200076c57600080fd5b505af115801562000781573d6000803e3d6000fd5b505050505050505050505062000d25565b600081519050620007a38162000ca3565b92915050565b600081519050620007ba8162000cbd565b92915050565b600081519050620007d18162000cd7565b92915050565b600081519050620007e88162000cf1565b92915050565b600081519050620007ff8162000d0b565b92915050565b6000602082840312156200081857600080fd5b60006200082884828501620007a9565b91505092915050565b60008060008060008060c087890312156200084b57600080fd5b60006200085b89828a01620007d7565b96505060206200086e89828a0162000792565b95505060406200088189828a01620007c0565b94505060606200089489828a01620007ee565b9350506080620008a789828a01620007ee565b92505060a0620008ba89828a01620007ee565b9150509295509295509295565b620008d28162000c12565b82525050565b6000620008e7601d8362000bed565b91507f6163636570746564546f6b656e206973207a65726f20616464726573730000006000830152602082019050919050565b60006200092960258362000bed565b91507f43616e206e6f7420686176652061206e6567617469766520696e74657265737460008301527f20726174650000000000000000000000000000000000000000000000000000006020830152604082019050919050565b60006200099160288362000bed565b91507f43616e206e6f7420686176652061206c6f616e207465726d206c65737320746860008301527f616e2031206461790000000000000000000000000000000000000000000000006020830152604082019050919050565b6000620009f960138362000bed565b91507f636661206973207a65726f2061646472657373000000000000000000000000006000830152602082019050919050565b600062000a3b60268362000bed565b91507f43616e206e6f7420686176652061206e656761746976652066756e64696e672060008301527f74617267657400000000000000000000000000000000000000000000000000006020830152604082019050919050565b600062000aa360148362000bed565b91507f686f7374206973207a65726f20616464726573730000000000000000000000006000830152602082019050919050565b62000ae18162000c99565b82525050565b600060208201905062000afe6000830184620008c7565b92915050565b6000602082019050818103600083015262000b1f81620008d8565b9050919050565b6000602082019050818103600083015262000b41816200091a565b9050919050565b6000602082019050818103600083015262000b638162000982565b9050919050565b6000602082019050818103600083015262000b8581620009ea565b9050919050565b6000602082019050818103600083015262000ba78162000a2c565b9050919050565b6000602082019050818103600083015262000bc98162000a94565b9050919050565b600060208201905062000be7600083018462000ad6565b92915050565b600082825260208201905092915050565b600062000c0b8262000c79565b9050919050565b6000819050919050565b600062000c298262000bfe565b9050919050565b600062000c3d8262000bfe565b9050919050565b600062000c518262000bfe565b9050919050565b600062000c658262000bfe565b9050919050565b600081600b0b9050919050565b600073ffffffffffffffffffffffffffffffffffffffff82169050919050565b6000819050919050565b62000cae8162000c1c565b811462000cba57600080fd5b50565b62000cc88162000c30565b811462000cd457600080fd5b50565b62000ce28162000c44565b811462000cee57600080fd5b50565b62000cfc8162000c58565b811462000d0857600080fd5b50565b62000d168162000c6c565b811462000d2257600080fd5b50565b6134018062000d356000396000f3fe608060405234801561001057600080fd5b50600436106101165760003560e01c80638371c3c4116100a2578063adb3670011610071578063adb36700146102f9578063bcb77e7c14610317578063d3112b2e14610333578063d86ed3e514610352578063f851a4401461038257610116565b80638371c3c41461026f578063884d1f401461028d578063889e2cd5146102bd578063a33bb73c146102db57610116565b80635f9e7d77116100e95780635f9e7d77146101c95780636861c302146101f95780636f799cf914610217578063704b6c02146102355780637df1f1b91461025157610116565b8063230dbd291461011b578063252e40b11461014b57806330d9c9151461016957806353c11f9914610199575b600080fd5b61013560048036038101906101309190612306565b6103a0565b6040516101429190612ac7565b60405180910390f35b6101536104df565b6040516101609190612c39565b60405180910390f35b610183600480360381019061017e9190612256565b6104e7565b6040516101909190612ac7565b60405180910390f35b6101b360048036038101906101ae9190612306565b610524565b6040516101c09190612ac7565b60405180910390f35b6101e360048036038101906101de9190612256565b61063c565b6040516101f09190612ac7565b60405180910390f35b610201610679565b60405161020e9190612aac565b60405180910390f35b61021f61068c565b60405161022c9190612c39565b60405180910390f35b61024f600480360381019061024a919061216f565b61069f565b005b610259610758565b60405161026691906129a8565b60405180910390f35b61027761077e565b6040516102849190612c39565b60405180910390f35b6102a760048036038101906102a29190612256565b610791565b6040516102b49190612ac7565b60405180910390f35b6102c56107ce565b6040516102d291906129a8565b60405180910390f35b6102e36107f4565b6040516102f09190612c39565b60405180910390f35b610301610807565b60405161030e9190612c39565b60405180910390f35b610331600480360381019061032c91906123e5565b61081a565b005b61033b610d74565b604051610349929190612c10565b60405180910390f35b61036c60048036038101906103679190612306565b610dc6565b6040516103799190612ac7565b60405180910390f35b61038a610f2a565b60405161039791906129a8565b60405180910390f35b606089896103ad82610f54565b6103ec576040517f08c379a00000000000000000000000000000000000000000000000000000000081526004016103e390612ccb565b60405180910390fd5b6103f581610fae565b610434576040517f08c379a000000000000000000000000000000000000000000000000000000000815260040161042b90612c8b565b60405180910390fd5b600260009054906101000a900473ffffffffffffffffffffffffffffffffffffffff1673ffffffffffffffffffffffffffffffffffffffff163373ffffffffffffffffffffffffffffffffffffffff16146104c4576040517f08c379a00000000000000000000000000000000000000000000000000000000081526004016104bb90612d0b565b60405180910390fd5b6104ce8585611057565b925050509998505050505050505050565b6301e1338081565b60606040517f08c379a000000000000000000000000000000000000000000000000000000000815260040161051b90612dab565b60405180910390fd5b6060600260009054906101000a900473ffffffffffffffffffffffffffffffffffffffff1673ffffffffffffffffffffffffffffffffffffffff163373ffffffffffffffffffffffffffffffffffffffff16146105b6576040517f08c379a00000000000000000000000000000000000000000000000000000000081526004016105ad90612d0b565b60405180910390fd5b6105bf8a610f54565b15806105d157506105cf89610fae565b155b156106225782828080601f016020809104026020016040519081016040528093929190818152602001838380828437600081840152601f19601f82011690508083019250505050505050905061062f565b61062c8383611057565b90505b9998505050505050505050565b60606040517f08c379a000000000000000000000000000000000000000000000000000000000815260040161067090612ceb565b60405180910390fd5b600d60029054906101000a900460ff1681565b600660009054906101000a9004600b0b81565b3373ffffffffffffffffffffffffffffffffffffffff166106be610f2a565b73ffffffffffffffffffffffffffffffffffffffff1614610714576040517f08c379a000000000000000000000000000000000000000000000000000000000815260040161070b90612dcb565b60405180910390fd5b80600860006101000a81548173ffffffffffffffffffffffffffffffffffffffff021916908373ffffffffffffffffffffffffffffffffffffffff16021790555050565b6007600c9054906101000a900473ffffffffffffffffffffffffffffffffffffffff1681565b600760009054906101000a9004600b0b81565b60606040517f08c379a00000000000000000000000000000000000000000000000000000000081526004016107c590612d8b565b60405180910390fd5b600560009054906101000a900473ffffffffffffffffffffffffffffffffffffffff1681565b6006600c9054906101000a9004600b0b81565b600560149054906101000a9004600b0b81565b600560009054906101000a900473ffffffffffffffffffffffffffffffffffffffff1673ffffffffffffffffffffffffffffffffffffffff168173ffffffffffffffffffffffffffffffffffffffff16146108aa576040517f08c379a00000000000000000000000000000000000000000000000000000000081526004016108a190612d6b565b60405180910390fd5b600d60029054906101000a900460ff166108f9576040517f08c379a00000000000000000000000000000000000000000000000000000000081526004016108f090612deb565b60405180910390fd5b81600b0b8173ffffffffffffffffffffffffffffffffffffffff166370a08231306040518263ffffffff1660e01b815260040161093691906129a8565b60206040518083038186803b15801561094e57600080fd5b505afa158015610962573d6000803e3d6000fd5b505050506040513d601f19601f820116820180604052508101906109869190612421565b600560149054906101000a9004600b0b6109a09190613072565b600b0b136109e3576040517f08c379a00000000000000000000000000000000000000000000000000000000081526004016109da90612cab565b60405180910390fd5b600082600b0b90508173ffffffffffffffffffffffffffffffffffffffff166323b872dd3330846040518463ffffffff1660e01b8152600401610a28939291906129ec565b602060405180830381600087803b158015610a4257600080fd5b505af1158015610a56573d6000803e3d6000fd5b505050506040513d601f19601f82011682018060405250810190610a7a9190612198565b506000600960003373ffffffffffffffffffffffffffffffffffffffff1673ffffffffffffffffffffffffffffffffffffffff16815260200190815260200160002060009054906101000a9004600b0b905083600960003373ffffffffffffffffffffffffffffffffffffffff1673ffffffffffffffffffffffffffffffffffffffff16815260200190815260200160002060009054906101000a9004600b0b610b249190612e99565b600960003373ffffffffffffffffffffffffffffffffffffffff1673ffffffffffffffffffffffffffffffffffffffff16815260200190815260200160002060006101000a8154816bffffffffffffffffffffffff0219169083600b0b6bffffffffffffffffffffffff16021790555080600b0b600960003373ffffffffffffffffffffffffffffffffffffffff1673ffffffffffffffffffffffffffffffffffffffff16815260200190815260200160002060009054906101000a9004600b0b600b0b13610c28576040517f08c379a0000000000000000000000000000000000000000000000000000000008152600401610c1f90612d4b565b60405180910390fd5b600a60003373ffffffffffffffffffffffffffffffffffffffff1673ffffffffffffffffffffffffffffffffffffffff16815260200190815260200160002060009054906101000a900460ff16610d3557600b339080600181540180825580915050600190039060005260206000200160009091909190916101000a81548173ffffffffffffffffffffffffffffffffffffffff021916908373ffffffffffffffffffffffffffffffffffffffff1602179055506001600a60003373ffffffffffffffffffffffffffffffffffffffff1673ffffffffffffffffffffffffffffffffffffffff16815260200190815260200160002060006101000a81548160ff0219169083151502179055505b7f691fdc2f833f8d90e23f9b6db1c8e9da787dbe39c50460cef23b02c7a1a55d613385604051610d66929190612a23565b60405180910390a150505050565b60008060000160009054906101000a900473ffffffffffffffffffffffffffffffffffffffff16908060010160009054906101000a900473ffffffffffffffffffffffffffffffffffffffff16905082565b60608989610dd382610f54565b610e12576040517f08c379a0000000000000000000000000000000000000000000000000000000008152600401610e0990612ccb565b60405180910390fd5b610e1b81610fae565b610e5a576040517f08c379a0000000000000000000000000000000000000000000000000000000008152600401610e5190612c8b565b60405180910390fd5b600260009054906101000a900473ffffffffffffffffffffffffffffffffffffffff1673ffffffffffffffffffffffffffffffffffffffff163373ffffffffffffffffffffffffffffffffffffffff1614610eea576040517f08c379a0000000000000000000000000000000000000000000000000000000008152600401610ee190612d0b565b60405180910390fd5b600d60009054906101000a900460ff16610f0f57610f06611544565b610f0e611a25565b5b610f198585611057565b925050509998505050505050505050565b6000600860009054906101000a900473ffffffffffffffffffffffffffffffffffffffff16905090565b6000600460009054906101000a900473ffffffffffffffffffffffffffffffffffffffff1673ffffffffffffffffffffffffffffffffffffffff168273ffffffffffffffffffffffffffffffffffffffff16149050919050565b60007fa9214cc96615e0085d3bb077758db69497dc2dce3b2b1e97bc93c3d18d83efd38273ffffffffffffffffffffffffffffffffffffffff16637730599e6040518163ffffffff1660e01b815260040160206040518083038186803b15801561101757600080fd5b505afa15801561102b573d6000803e3d6000fd5b505050506040513d601f19601f8201168201806040525081019061104f91906121c1565b149050919050565b60606000600360009054906101000a900473ffffffffffffffffffffffffffffffffffffffff1673ffffffffffffffffffffffffffffffffffffffff1663e6a1e888600460009054906101000a900473ffffffffffffffffffffffffffffffffffffffff16306007600c9054906101000a900473ffffffffffffffffffffffffffffffffffffffff166040518463ffffffff1660e01b81526004016110fe93929190612b41565b60806040518083038186803b15801561111657600080fd5b505afa15801561112a573d6000803e3d6000fd5b505050506040513d601f19601f8201168201806040525081019061114e919061244a565b505091505083838080601f016020809104026020016040519081016040528093929190818152602001838380828437600081840152601f19601f8201169050808301925050505050505091506000600b80549050905060011515600d60019054906101000a900460ff16151514156113f057600080600190505b82811161134f57600c6000600b6001846111e291906130f2565b81548110611219577f4e487b7100000000000000000000000000000000000000000000000000000000600052603260045260246000fd5b9060005260206000200160009054906101000a900473ffffffffffffffffffffffffffffffffffffffff1673ffffffffffffffffffffffffffffffffffffffff1673ffffffffffffffffffffffffffffffffffffffff16815260200190815260200160002060009054906101000a9004600b0b915061133a85600b6001846112a191906130f2565b815481106112d8577f4e487b7100000000000000000000000000000000000000000000000000000000600052603260045260246000fd5b9060005260206000200160009054906101000a900473ffffffffffffffffffffffffffffffffffffffff16600460009054906101000a900473ffffffffffffffffffffffffffffffffffffffff16856000611b4390949392919063ffffffff16565b945080806113479061325a565b9150506111c8565b506000600d60016101000a81548160ff0219169083151502179055507fcbe3ac4194df6f302da11c2a67ee9e6e21a29fc1f90339c8d278de43b0663c4a6007600c9054906101000a900473ffffffffffffffffffffffffffffffffffffffff1684600460009054906101000a900473ffffffffffffffffffffffffffffffffffffffff166040516113e293929190612a4c565b60405180910390a15061153c565b600082600b0b141561152c576000600190505b8181116114cb576114b68430600b60018561141e91906130f2565b81548110611455577f4e487b7100000000000000000000000000000000000000000000000000000000600052603260045260246000fd5b9060005260206000200160009054906101000a900473ffffffffffffffffffffffffffffffffffffffff16600460009054906101000a900473ffffffffffffffffffffffffffffffffffffffff166000611d1d90949392919063ffffffff16565b935080806114c39061325a565b915050611403565b507fdbf5b5f6744d1c5fdc375aafa985ba100624da54b7fc593147b6784951bdb16b6007600c9054906101000a900473ffffffffffffffffffffffffffffffffffffffff163060405161151f9291906129c3565b60405180910390a161153b565b600860149054906101000a9050505b5b505092915050565b6000600460009054906101000a900473ffffffffffffffffffffffffffffffffffffffff1673ffffffffffffffffffffffffffffffffffffffff166370a08231306040518263ffffffff1660e01b81526004016115a191906129a8565b60206040518083038186803b1580156115b957600080fd5b505afa1580156115cd573d6000803e3d6000fd5b505050506040513d601f19601f820116820180604052508101906115f19190612421565b11611631576040517f08c379a000000000000000000000000000000000000000000000000000000000815260040161162890612d2b565b60405180910390fd5b6001600d60026101000a81548160ff021916908315150217905561168a576040517f08c379a000000000000000000000000000000000000000000000000000000000815260040161168190612deb565b60405180910390fd5b600460009054906101000a900473ffffffffffffffffffffffffffffffffffffffff1673ffffffffffffffffffffffffffffffffffffffff166370a08231306040518263ffffffff1660e01b81526004016116e591906129a8565b60206040518083038186803b1580156116fd57600080fd5b505afa158015611711573d6000803e3d6000fd5b505050506040513d601f19601f820116820180604052508101906117359190612421565b600660006101000a8154816bffffffffffffffffffffffff0219169083600b0b6bffffffffffffffffffffffff1602179055506000600d60026101000a81548160ff0219169083151502179055506001600d60006101000a81548160ff0219169083151502179055506000600660009054906101000a9004600b0b600b0b9050600460009054906101000a900473ffffffffffffffffffffffffffffffffffffffff1673ffffffffffffffffffffffffffffffffffffffff1663a9059cbb6007600c9054906101000a900473ffffffffffffffffffffffffffffffffffffffff16836040518363ffffffff1660e01b8152600401611834929190612a83565b602060405180830381600087803b15801561184e57600080fd5b505af1158015611862573d6000803e3d6000fd5b505050506040513d601f19601f820116820180604052508101906118869190612198565b506000600360009054906101000a900473ffffffffffffffffffffffffffffffffffffffff1673ffffffffffffffffffffffffffffffffffffffff1663e6a1e888600460009054906101000a900473ffffffffffffffffffffffffffffffffffffffff16306007600c9054906101000a900473ffffffffffffffffffffffffffffffffffffffff166040518463ffffffff1660e01b815260040161192c93929190612b41565b60806040518083038186803b15801561194457600080fd5b505afa158015611958573d6000803e3d6000fd5b505050506040513d601f19601f8201168201806040525081019061197c919061244a565b505091505080600860146101000a8154816bffffffffffffffffffffffff0219169083600b0b6bffffffffffffffffffffffff1602179055507fc652a52dff6bd8ff0fcb2ebdc30f03530dc758d04de610d479d09699de863c52600660009054906101000a9004600b0b6007600c9054906101000a900473ffffffffffffffffffffffffffffffffffffffff1630604051611a1993929190612c54565b60405180910390a15050565b6000600b8054905090506000600190505b818111611b3f576000600b600183611a4e91906130f2565b81548110611a85577f4e487b7100000000000000000000000000000000000000000000000000000000600052603260045260246000fd5b9060005260206000200160009054906101000a900473ffffffffffffffffffffffffffffffffffffffff169050611abb81611ef7565b600c60008373ffffffffffffffffffffffffffffffffffffffff1673ffffffffffffffffffffffffffffffffffffffff16815260200190815260200160002060006101000a8154816bffffffffffffffffffffffff0219169083600b0b6bffffffffffffffffffffffff160217905550508080611b379061325a565b915050611a36565b5050565b60608560000160009054906101000a900473ffffffffffffffffffffffffffffffffffffffff1673ffffffffffffffffffffffffffffffffffffffff16634329d2938760010160009054906101000a900473ffffffffffffffffffffffffffffffffffffffff166362fc305e60e01b868887600067ffffffffffffffff811115611bf6577f4e487b7100000000000000000000000000000000000000000000000000000000600052604160045260246000fd5b6040519080825280601f01601f191660200182016040528015611c285781602001600182028036833780820191505090505b50604051602401611c3c9493929190612bc4565b604051602081830303815290604052907bffffffffffffffffffffffffffffffffffffffffffffffffffffffff19166020820180517bffffffffffffffffffffffffffffffffffffffffffffffffffffffff8381831617835250505050886040518463ffffffff1660e01b8152600401611cb893929190612ae9565b600060405180830381600087803b158015611cd257600080fd5b505af1158015611ce6573d6000803e3d6000fd5b505050506040513d6000823e3d601f19601f82011682018060405250810190611d0f91906121ea565b508091505095945050505050565b60608560000160009054906101000a900473ffffffffffffffffffffffffffffffffffffffff1673ffffffffffffffffffffffffffffffffffffffff16634329d2938760010160009054906101000a900473ffffffffffffffffffffffffffffffffffffffff1663b4b333c660e01b858888600067ffffffffffffffff811115611dd0577f4e487b7100000000000000000000000000000000000000000000000000000000600052604160045260246000fd5b6040519080825280601f01601f191660200182016040528015611e025781602001600182028036833780820191505090505b50604051602401611e169493929190612b78565b604051602081830303815290604052907bffffffffffffffffffffffffffffffffffffffffffffffffffffffff19166020820180517bffffffffffffffffffffffffffffffffffffffffffffffffffffffff8381831617835250505050886040518463ffffffff1660e01b8152600401611e9293929190612ae9565b600060405180830381600087803b158015611eac57600080fd5b505af1158015611ec0573d6000803e3d6000fd5b505050506040513d6000823e3d601f19601f82011682018060405250810190611ee991906121ea565b508091505095945050505050565b6000806127106006600c9054906101000a9004600b0b600660009054906101000a9004600b0b611f279190612f83565b611f319190612f19565b90506000600760009054906101000a9004600b0b61016d600660009054906101000a9004600b0b611f629190612f83565b611f6c9190612f19565b905060008183611f7c9190612e99565b90506000600660009054906101000a9004600b0b82600960008973ffffffffffffffffffffffffffffffffffffffff1673ffffffffffffffffffffffffffffffffffffffff16815260200190815260200160002060009054906101000a9004600b0b611fe89190612f83565b611ff29190612f19565b905060006301e13380826120069190612f19565b90508095505050505050919050565b600061202861202384612e3c565b612e0b565b90508281526020810184848401111561204057600080fd5b61204b848285613227565b509392505050565b60008135905061206281613341565b92915050565b60008151905061207781613358565b92915050565b60008135905061208c8161336f565b92915050565b6000815190506120a18161336f565b92915050565b60008083601f8401126120b957600080fd5b8235905067ffffffffffffffff8111156120d257600080fd5b6020830191508360018202830111156120ea57600080fd5b9250929050565b600082601f83011261210257600080fd5b8151612112848260208601612015565b91505092915050565b60008135905061212a81613386565b92915050565b60008135905061213f8161339d565b92915050565b6000815190506121548161339d565b92915050565b600081519050612169816133b4565b92915050565b60006020828403121561218157600080fd5b600061218f84828501612053565b91505092915050565b6000602082840312156121aa57600080fd5b60006121b884828501612068565b91505092915050565b6000602082840312156121d357600080fd5b60006121e184828501612092565b91505092915050565b600080604083850312156121fd57600080fd5b600083015167ffffffffffffffff81111561221757600080fd5b612223858286016120f1565b925050602083015167ffffffffffffffff81111561224057600080fd5b61224c858286016120f1565b9150509250929050565b600080600080600080600060a0888a03121561227157600080fd5b600061227f8a828b0161211b565b97505060206122908a828b01612053565b96505060406122a18a828b0161207d565b955050606088013567ffffffffffffffff8111156122be57600080fd5b6122ca8a828b016120a7565b9450945050608088013567ffffffffffffffff8111156122e957600080fd5b6122f58a828b016120a7565b925092505092959891949750929550565b600080600080600080600080600060c08a8c03121561232457600080fd5b60006123328c828d0161211b565b99505060206123438c828d01612053565b98505060406123548c828d0161207d565b97505060608a013567ffffffffffffffff81111561237157600080fd5b61237d8c828d016120a7565b965096505060808a013567ffffffffffffffff81111561239c57600080fd5b6123a88c828d016120a7565b945094505060a08a013567ffffffffffffffff8111156123c757600080fd5b6123d38c828d016120a7565b92509250509295985092959850929598565b600080604083850312156123f857600080fd5b600061240685828601612130565b925050602061241785828601612053565b9150509250929050565b60006020828403121561243357600080fd5b60006124418482850161215a565b91505092915050565b6000806000806080858703121561246057600080fd5b600061246e8782880161215a565b945050602061247f87828801612145565b93505060406124908782880161215a565b92505060606124a18782880161215a565b91505092959194509250565b6124b681613126565b82525050565b6124c581613138565b82525050565b60006124d682612e6c565b6124e08185612e77565b93506124f0818560208601613227565b6124f981613330565b840191505092915050565b61250d81613197565b82525050565b61251c816131bb565b82525050565b61252b816131df565b82525050565b61253a81613203565b82525050565b61254981613160565b82525050565b600061255c602183612e88565b91507f5265646972656374416c6c3a206f6e6c7920434641763120737570706f72746560008301527f64000000000000000000000000000000000000000000000000000000000000006020830152604082019050919050565b60006125c2602d83612e88565b91507f4e6f7420656e6f756768206c6f616e20636170616369747920666f722064657060008301527f6f736974207468697320626967000000000000000000000000000000000000006020830152604082019050919050565b6000612628601f83612e88565b91507f5265646972656374416c6c3a206e6f7420616363657074656420746f6b656e006000830152602082019050919050565b6000612668603383612e88565b91507f556e737570706f727465642063616c6c6261636b202d20204265666f7265204160008301527f677265656d656e74205465726d696e61746564000000000000000000000000006020830152604082019050919050565b60006126ce602283612e88565b91507f5265646972656374416c6c3a20737570706f7274206f6e6c79206f6e6520686f60008301527f73740000000000000000000000000000000000000000000000000000000000006020830152604082019050919050565b6000612734600283612e77565b91507f30780000000000000000000000000000000000000000000000000000000000006000830152602082019050919050565b6000612774602f83612e88565b91507f636f6e747261637420646f6573206e6f74206f776e20616e79206f662074686560008301527f20616363657074656420746f6b656e00000000000000000000000000000000006020830152604082019050919050565b60006127da600983612e88565b91507f6f76657220666c6f7700000000000000000000000000000000000000000000006000830152602082019050919050565b600061281a601a83612e88565b91507f43616e206e6f74206465706f736974207468697320746f6b656e0000000000006000830152602082019050919050565b600061285a602f83612e88565b91507f556e737570706f727465642063616c6c6261636b202d204265666f726520416760008301527f7265656d656e74207570646174656400000000000000000000000000000000006020830152604082019050919050565b60006128c0602f83612e88565b91507f556e737570706f727465642063616c6c6261636b202d204265666f726520416760008301527f7265656d656e74204372656174656400000000000000000000000000000000006020830152604082019050919050565b6000612926601783612e88565b91507f63616c6c6572206973206e6f74207468652061646d696e0000000000000000006000830152602082019050919050565b6000612966601283612e88565b91507f636c6f73656420746f206465706f7369747300000000000000000000000000006000830152602082019050919050565b6129a28161318d565b82525050565b60006020820190506129bd60008301846124ad565b92915050565b60006040820190506129d860008301856124ad565b6129e560208301846124ad565b9392505050565b6000606082019050612a0160008301866124ad565b612a0e60208301856124ad565b612a1b6040830184612999565b949350505050565b6000604082019050612a3860008301856124ad565b612a456020830184612540565b9392505050565b6000606082019050612a6160008301866124ad565b612a6e6020830185612540565b612a7b60408301846124ad565b949350505050565b6000604082019050612a9860008301856124ad565b612aa56020830184612999565b9392505050565b6000602082019050612ac160008301846124bc565b92915050565b60006020820190508181036000830152612ae181846124cb565b905092915050565b6000608082019050612afe6000830186612504565b8181036020830152612b1081856124cb565b90508181036040830152612b2381612727565b90508181036060830152612b3781846124cb565b9050949350505050565b6000606082019050612b566000830186612513565b612b6360208301856124ad565b612b7060408301846124ad565b949350505050565b6000608082019050612b8d6000830187612522565b612b9a60208301866124ad565b612ba760408301856124ad565b8181036060830152612bb981846124cb565b905095945050505050565b6000608082019050612bd96000830187612522565b612be660208301866124ad565b612bf36040830185612540565b8181036060830152612c0581846124cb565b905095945050505050565b6000604082019050612c256000830185612531565b612c326020830184612504565b9392505050565b6000602082019050612c4e6000830184612540565b92915050565b6000606082019050612c696000830186612540565b612c7660208301856124ad565b612c8360408301846124ad565b949350505050565b60006020820190508181036000830152612ca48161254f565b9050919050565b60006020820190508181036000830152612cc4816125b5565b9050919050565b60006020820190508181036000830152612ce48161261b565b9050919050565b60006020820190508181036000830152612d048161265b565b9050919050565b60006020820190508181036000830152612d24816126c1565b9050919050565b60006020820190508181036000830152612d4481612767565b9050919050565b60006020820190508181036000830152612d64816127cd565b9050919050565b60006020820190508181036000830152612d848161280d565b9050919050565b60006020820190508181036000830152612da48161284d565b9050919050565b60006020820190508181036000830152612dc4816128b3565b9050919050565b60006020820190508181036000830152612de481612919565b9050919050565b60006020820190508181036000830152612e0481612959565b9050919050565b6000604051905081810181811067ffffffffffffffff82111715612e3257612e31613301565b5b8060405250919050565b600067ffffffffffffffff821115612e5757612e56613301565b5b601f19601f8301169050602081019050919050565b600081519050919050565b600082825260208201905092915050565b600082825260208201905092915050565b6000612ea482613160565b9150612eaf83613160565b9250816b7fffffffffffffffffffffff03831360008312151615612ed657612ed56132a3565b5b817fffffffffffffffffffffffffffffffffffffffff800000000000000000000000038312600083121615612f0e57612f0d6132a3565b5b828201905092915050565b6000612f2482613160565b9150612f2f83613160565b925082612f3f57612f3e6132d2565b5b600160000383147fffffffffffffffffffffffffffffffffffffffff80000000000000000000000083141615612f7857612f776132a3565b5b828205905092915050565b6000612f8e82613160565b9150612f9983613160565b9250826b7fffffffffffffffffffffff0482116000841360008413161615612fc457612fc36132a3565b5b817fffffffffffffffffffffffffffffffffffffffff8000000000000000000000000583126000841260008413161615613001576130006132a3565b5b827fffffffffffffffffffffffffffffffffffffffff800000000000000000000000058212600084136000841216161561303e5761303d6132a3565b5b826b7fffffffffffffffffffffff0582126000841260008412161615613067576130666132a3565b5b828202905092915050565b600061307d82613160565b915061308883613160565b9250827fffffffffffffffffffffffffffffffffffffffff800000000000000000000000018212600084121516156130c3576130c26132a3565b5b826b7fffffffffffffffffffffff0182136000841216156130e7576130e66132a3565b5b828203905092915050565b60006130fd8261318d565b91506131088361318d565b92508282101561311b5761311a6132a3565b5b828203905092915050565b60006131318261316d565b9050919050565b60008115159050919050565b6000819050919050565b600061315982613126565b9050919050565b600081600b0b9050919050565b600073ffffffffffffffffffffffffffffffffffffffff82169050919050565b6000819050919050565b60006131a2826131a9565b9050919050565b60006131b48261316d565b9050919050565b60006131c6826131cd565b9050919050565b60006131d88261316d565b9050919050565b60006131ea826131f1565b9050919050565b60006131fc8261316d565b9050919050565b600061320e82613215565b9050919050565b60006132208261316d565b9050919050565b60005b8381101561324557808201518184015260208101905061322a565b83811115613254576000848401525b50505050565b60006132658261318d565b91507fffffffffffffffffffffffffffffffffffffffffffffffffffffffffffffffff821415613298576132976132a3565b5b600182019050919050565b7f4e487b7100000000000000000000000000000000000000000000000000000000600052601160045260246000fd5b7f4e487b7100000000000000000000000000000000000000000000000000000000600052601260045260246000fd5b7f4e487b7100000000000000000000000000000000000000000000000000000000600052604160045260246000fd5b6000601f19601f8301169050919050565b61334a81613126565b811461335557600080fd5b50565b61336181613138565b811461336c57600080fd5b50565b61337881613144565b811461338357600080fd5b50565b61338f8161314e565b811461339a57600080fd5b50565b6133a681613160565b81146133b157600080fd5b50565b6133bd8161318d565b81146133c857600080fd5b5056fea264697066735822122081c3d4a49e356471b65b7ff355aa6ffc777d07cd9c6072111a935a4d42430ab664736f6c63430008000033",
  "linkReferences": {},
  "deployedLinkReferences": {}
}