{
  "_format": "hh-sol-artifact-1",
  "contractName": "Bond",
  "sourceName": "contracts/Bond.sol",
  "abi": [
    {
      "inputs": [
        {
          "internalType": "contract ISuperfluid",
          "name": "host",
          "type": "address"
        },
        {
          "internalType": "contract IConstantFlowAgreementV1",
          "name": "cfa",
          "type": "address"
        },
        {
          "internalType": "contract ISuperToken",
          "name": "acceptedToken",
          "type": "address"
        },
        {
          "internalType": "int96",
          "name": "fundingTarget",
          "type": "int96"
        },
        {
          "internalType": "int96",
          "name": "fundingRate",
          "type": "int96"
        },
        {
          "internalType": "int96",
          "name": "loanTerm",
          "type": "int96"
        }
      ],
      "stateMutability": "nonpayable",
      "type": "constructor"
    },
    {
      "anonymous": false,
      "inputs": [
        {
          "indexed": false,
          "internalType": "address",
          "name": "depositor",
          "type": "address"
        },
        {
          "indexed": false,
          "internalType": "int96",
          "name": "amount",
          "type": "int96"
        }
      ],
      "name": "depositEvent",
      "type": "event"
    },
    {
      "inputs": [],
      "name": "admin",
      "outputs": [
        {
          "internalType": "address",
          "name": "",
          "type": "address"
        }
      ],
      "stateMutability": "view",
      "type": "function"
    },
    {
      "inputs": [
        {
          "internalType": "contract ISuperToken",
          "name": "_superToken",
          "type": "address"
        },
        {
          "internalType": "address",
          "name": "_agreementClass",
          "type": "address"
        },
        {
          "internalType": "bytes32",
          "name": "",
          "type": "bytes32"
        },
        {
          "internalType": "bytes",
          "name": "",
          "type": "bytes"
        },
        {
          "internalType": "bytes",
          "name": "",
          "type": "bytes"
        },
        {
          "internalType": "bytes",
          "name": "_ctx",
          "type": "bytes"
        }
      ],
      "name": "afterAgreementCreated",
      "outputs": [
        {
          "internalType": "bytes",
          "name": "newCtx",
          "type": "bytes"
        }
      ],
      "stateMutability": "nonpayable",
      "type": "function"
    },
    {
      "inputs": [
        {
          "internalType": "contract ISuperToken",
          "name": "_superToken",
          "type": "address"
        },
        {
          "internalType": "address",
          "name": "_agreementClass",
          "type": "address"
        },
        {
          "internalType": "bytes32",
          "name": "",
          "type": "bytes32"
        },
        {
          "internalType": "bytes",
          "name": "",
          "type": "bytes"
        },
        {
          "internalType": "bytes",
          "name": "",
          "type": "bytes"
        },
        {
          "internalType": "bytes",
          "name": "_ctx",
          "type": "bytes"
        }
      ],
      "name": "afterAgreementTerminated",
      "outputs": [
        {
          "internalType": "bytes",
          "name": "newCtx",
          "type": "bytes"
        }
      ],
      "stateMutability": "nonpayable",
      "type": "function"
    },
    {
      "inputs": [
        {
          "internalType": "contract ISuperToken",
          "name": "_superToken",
          "type": "address"
        },
        {
          "internalType": "address",
          "name": "_agreementClass",
          "type": "address"
        },
        {
          "internalType": "bytes32",
          "name": "",
          "type": "bytes32"
        },
        {
          "internalType": "bytes",
          "name": "",
          "type": "bytes"
        },
        {
          "internalType": "bytes",
          "name": "",
          "type": "bytes"
        },
        {
          "internalType": "bytes",
          "name": "_ctx",
          "type": "bytes"
        }
      ],
      "name": "afterAgreementUpdated",
      "outputs": [
        {
          "internalType": "bytes",
          "name": "newCtx",
          "type": "bytes"
        }
      ],
      "stateMutability": "nonpayable",
      "type": "function"
    },
    {
      "inputs": [
        {
          "internalType": "contract ISuperToken",
          "name": "",
          "type": "address"
        },
        {
          "internalType": "address",
          "name": "",
          "type": "address"
        },
        {
          "internalType": "bytes32",
          "name": "",
          "type": "bytes32"
        },
        {
          "internalType": "bytes",
          "name": "",
          "type": "bytes"
        },
        {
          "internalType": "bytes",
          "name": "",
          "type": "bytes"
        }
      ],
      "name": "beforeAgreementCreated",
      "outputs": [
        {
          "internalType": "bytes",
          "name": "",
          "type": "bytes"
        }
      ],
      "stateMutability": "view",
      "type": "function"
    },
    {
      "inputs": [
        {
          "internalType": "contract ISuperToken",
          "name": "",
          "type": "address"
        },
        {
          "internalType": "address",
          "name": "",
          "type": "address"
        },
        {
          "internalType": "bytes32",
          "name": "",
          "type": "bytes32"
        },
        {
          "internalType": "bytes",
          "name": "",
          "type": "bytes"
        },
        {
          "internalType": "bytes",
          "name": "",
          "type": "bytes"
        }
      ],
      "name": "beforeAgreementTerminated",
      "outputs": [
        {
          "internalType": "bytes",
          "name": "",
          "type": "bytes"
        }
      ],
      "stateMutability": "view",
      "type": "function"
    },
    {
      "inputs": [
        {
          "internalType": "contract ISuperToken",
          "name": "",
          "type": "address"
        },
        {
          "internalType": "address",
          "name": "",
          "type": "address"
        },
        {
          "internalType": "bytes32",
          "name": "",
          "type": "bytes32"
        },
        {
          "internalType": "bytes",
          "name": "",
          "type": "bytes"
        },
        {
          "internalType": "bytes",
          "name": "",
          "type": "bytes"
        }
      ],
      "name": "beforeAgreementUpdated",
      "outputs": [
        {
          "internalType": "bytes",
          "name": "",
          "type": "bytes"
        }
      ],
      "stateMutability": "view",
      "type": "function"
    },
    {
      "inputs": [],
      "name": "borrower",
      "outputs": [
        {
          "internalType": "address",
          "name": "",
          "type": "address"
        }
      ],
      "stateMutability": "view",
      "type": "function"
    },
    {
      "inputs": [],
      "name": "cfaV1",
      "outputs": [
        {
          "internalType": "contract ISuperfluid",
          "name": "host",
          "type": "address"
        },
        {
          "internalType": "contract IConstantFlowAgreementV1",
          "name": "cfa",
          "type": "address"
        }
      ],
      "stateMutability": "view",
      "type": "function"
    },
    {
      "inputs": [
        {
          "internalType": "int96",
          "name": "amount",
          "type": "int96"
        },
        {
          "internalType": "address",
          "name": "tokenAddress",
          "type": "address"
        }
      ],
      "name": "deposit",
      "outputs": [],
      "stateMutability": "nonpayable",
      "type": "function"
    },
    {
      "inputs": [],
      "name": "openToDeposits",
      "outputs": [
        {
          "internalType": "bool",
          "name": "",
          "type": "bool"
        }
      ],
      "stateMutability": "view",
      "type": "function"
    },
    {
      "inputs": [],
      "name": "secondsPerYear",
      "outputs": [
        {
          "internalType": "int96",
          "name": "",
          "type": "int96"
        }
      ],
      "stateMutability": "view",
      "type": "function"
    },
    {
      "inputs": [
        {
          "internalType": "address",
          "name": "newAdmin",
          "type": "address"
        }
      ],
      "name": "setAdmin",
      "outputs": [],
      "stateMutability": "nonpayable",
      "type": "function"
    },
    {
      "inputs": [
        {
          "internalType": "address",
          "name": "tokenAddress",
          "type": "address"
        }
      ],
      "name": "whitelistToken",
      "outputs": [],
      "stateMutability": "nonpayable",
      "type": "function"
    },
    {
      "inputs": [
        {
          "internalType": "address",
          "name": "",
          "type": "address"
        }
      ],
      "name": "whitelistedTokens",
      "outputs": [
        {
          "internalType": "bool",
          "name": "",
          "type": "bool"
        }
      ],
      "stateMutability": "view",
      "type": "function"
    }
  ],
  "bytecode": "0x608060405273870ac8121ba4a31de8e5d91675edf3f937b8d7e9600760006101000a81548173ffffffffffffffffffffffffffffffffffffffff021916908373ffffffffffffffffffffffffffffffffffffffff1602179055503480156200006657600080fd5b50604051620042a8380380620042a883398181016040528101906200008c9190620007ce565b600073ffffffffffffffffffffffffffffffffffffffff168673ffffffffffffffffffffffffffffffffffffffff161415620000ff576040517f08c379a0000000000000000000000000000000000000000000000000000000008152600401620000f69062000b4b565b60405180910390fd5b600073ffffffffffffffffffffffffffffffffffffffff168573ffffffffffffffffffffffffffffffffffffffff16141562000172576040517f08c379a0000000000000000000000000000000000000000000000000000000008152600401620001699062000b07565b60405180910390fd5b600073ffffffffffffffffffffffffffffffffffffffff168473ffffffffffffffffffffffffffffffffffffffff161415620001e5576040517f08c379a0000000000000000000000000000000000000000000000000000000008152600401620001dc9062000aa1565b60405180910390fd5b600081600b0b136200022e576040517f08c379a0000000000000000000000000000000000000000000000000000000008152600401620002259062000ae5565b60405180910390fd5b600082600b0b1362000277576040517f08c379a00000000000000000000000000000000000000000000000000000000081526004016200026e9062000ac3565b60405180910390fd5b600083600b0b13620002c0576040517f08c379a0000000000000000000000000000000000000000000000000000000008152600401620002b79062000b29565b60405180910390fd5b85600260006101000a81548173ffffffffffffffffffffffffffffffffffffffff021916908373ffffffffffffffffffffffffffffffffffffffff1602179055508573ffffffffffffffffffffffffffffffffffffffff1663b6d200de7fa9214cc96615e0085d3bb077758db69497dc2dce3b2b1e97bc93c3d18d83efd36040518263ffffffff1660e01b81526004016200035c919062000a84565b60206040518083038186803b1580156200037557600080fd5b505afa1580156200038a573d6000803e3d6000fd5b505050506040513d601f19601f82011682018060405250810190620003b09190620007a2565b600360006101000a81548173ffffffffffffffffffffffffffffffffffffffff021916908373ffffffffffffffffffffffffffffffffffffffff16021790555083600460006101000a81548173ffffffffffffffffffffffffffffffffffffffff021916908373ffffffffffffffffffffffffffffffffffffffff16021790555082600460146101000a8154816bffffffffffffffffffffffff0219169083600b0b6bffffffffffffffffffffffff160217905550816005600c6101000a8154816bffffffffffffffffffffffff0219169083600b0b6bffffffffffffffffffffffff16021790555080600660006101000a8154816bffffffffffffffffffffffff0219169083600b0b6bffffffffffffffffffffffff1602179055506001600c60036101000a81548160ff0219169083151502179055506000600c60016101000a81548160ff021916908315150217905550336006600c6101000a81548173ffffffffffffffffffffffffffffffffffffffff021916908373ffffffffffffffffffffffffffffffffffffffff1602179055506001600c60026101000a81548160ff0219169083151502179055506040518060400160405280600260009054906101000a900473ffffffffffffffffffffffffffffffffffffffff1673ffffffffffffffffffffffffffffffffffffffff168152602001600360009054906101000a900473ffffffffffffffffffffffffffffffffffffffff1673ffffffffffffffffffffffffffffffffffffffff168152506000808201518160000160006101000a81548173ffffffffffffffffffffffffffffffffffffffff021916908373ffffffffffffffffffffffffffffffffffffffff16021790555060208201518160010160006101000a81548173ffffffffffffffffffffffffffffffffffffffff021916908373ffffffffffffffffffffffffffffffffffffffff160217905550905050600064100000000064040000000064010000000060011717179050600260009054906101000a900473ffffffffffffffffffffffffffffffffffffffff1673ffffffffffffffffffffffffffffffffffffffff1663ad3915c8826040518263ffffffff1660e01b8152600401620006ee919062000b6d565b600060405180830381600087803b1580156200070957600080fd5b505af11580156200071e573d6000803e3d6000fd5b505050505050505050505062000cc2565b600081519050620007408162000c40565b92915050565b600081519050620007578162000c5a565b92915050565b6000815190506200076e8162000c74565b92915050565b600081519050620007858162000c8e565b92915050565b6000815190506200079c8162000ca8565b92915050565b600060208284031215620007b557600080fd5b6000620007c58482850162000746565b91505092915050565b60008060008060008060c08789031215620007e857600080fd5b6000620007f889828a0162000774565b96505060206200080b89828a016200072f565b95505060406200081e89828a016200075d565b94505060606200083189828a016200078b565b93505060806200084489828a016200078b565b92505060a06200085789828a016200078b565b9150509295509295509295565b6200086f8162000baf565b82525050565b600062000884601d8362000b8a565b91507f6163636570746564546f6b656e206973207a65726f20616464726573730000006000830152602082019050919050565b6000620008c660258362000b8a565b91507f43616e206e6f7420686176652061206e6567617469766520696e74657265737460008301527f20726174650000000000000000000000000000000000000000000000000000006020830152604082019050919050565b60006200092e60288362000b8a565b91507f43616e206e6f7420686176652061206c6f616e207465726d206c65737320746860008301527f616e2031206461790000000000000000000000000000000000000000000000006020830152604082019050919050565b60006200099660138362000b8a565b91507f636661206973207a65726f2061646472657373000000000000000000000000006000830152602082019050919050565b6000620009d860268362000b8a565b91507f43616e206e6f7420686176652061206e656761746976652066756e64696e672060008301527f74617267657400000000000000000000000000000000000000000000000000006020830152604082019050919050565b600062000a4060148362000b8a565b91507f686f7374206973207a65726f20616464726573730000000000000000000000006000830152602082019050919050565b62000a7e8162000c36565b82525050565b600060208201905062000a9b600083018462000864565b92915050565b6000602082019050818103600083015262000abc8162000875565b9050919050565b6000602082019050818103600083015262000ade81620008b7565b9050919050565b6000602082019050818103600083015262000b00816200091f565b9050919050565b6000602082019050818103600083015262000b228162000987565b9050919050565b6000602082019050818103600083015262000b4481620009c9565b9050919050565b6000602082019050818103600083015262000b668162000a31565b9050919050565b600060208201905062000b84600083018462000a73565b92915050565b600082825260208201905092915050565b600062000ba88262000c16565b9050919050565b6000819050919050565b600062000bc68262000b9b565b9050919050565b600062000bda8262000b9b565b9050919050565b600062000bee8262000b9b565b9050919050565b600062000c028262000b9b565b9050919050565b600081600b0b9050919050565b600073ffffffffffffffffffffffffffffffffffffffff82169050919050565b6000819050919050565b62000c4b8162000bb9565b811462000c5757600080fd5b50565b62000c658162000bcd565b811462000c7157600080fd5b50565b62000c7f8162000be1565b811462000c8b57600080fd5b50565b62000c998162000bf5565b811462000ca557600080fd5b50565b62000cb38162000c09565b811462000cbf57600080fd5b50565b6135d68062000cd26000396000f3fe608060405234801561001057600080fd5b50600436106100f55760003560e01c8063704b6c0211610097578063d3112b2e11610066578063d3112b2e14610298578063d86ed3e5146102b7578063daf9c210146102e7578063f851a44014610317576100f5565b8063704b6c02146102125780637df1f1b91461022e578063884d1f401461024c578063bcb77e7c1461027c576100f5565b806353c11f99116100d357806353c11f99146101785780635f9e7d77146101a85780636247f6f2146101d85780636861c302146101f4576100f5565b8063230dbd29146100fa578063252e40b11461012a57806330d9c91514610148575b600080fd5b610114600480360381019061010f919061254c565b610335565b6040516101219190612cd3565b60405180910390f35b610132610474565b60405161013f9190612e45565b60405180910390f35b610162600480360381019061015d919061249c565b61047c565b60405161016f9190612cd3565b60405180910390f35b610192600480360381019061018d919061254c565b6104b9565b60405161019f9190612cd3565b60405180910390f35b6101c260048036038101906101bd919061249c565b6105d1565b6040516101cf9190612cd3565b60405180910390f35b6101f260048036038101906101ed91906123b5565b61060e565b005b6101fc6106de565b6040516102099190612cb8565b60405180910390f35b61022c600480360381019061022791906123b5565b6106f1565b005b6102366107aa565b6040516102439190612c14565b60405180910390f35b6102666004803603810190610261919061249c565b6107d0565b6040516102739190612cd3565b60405180910390f35b6102966004803603810190610291919061262b565b61080d565b005b6102a0610d63565b6040516102ae929190612e1c565b60405180910390f35b6102d160048036038101906102cc919061254c565b610db5565b6040516102de9190612cd3565b60405180910390f35b61030160048036038101906102fc91906123b5565b610f19565b60405161030e9190612cb8565b60405180910390f35b61031f610f39565b60405161032c9190612c14565b60405180910390f35b6060898961034282610f63565b610381576040517f08c379a000000000000000000000000000000000000000000000000000000000815260040161037890612ea0565b60405180910390fd5b61038a81610fbd565b6103c9576040517f08c379a00000000000000000000000000000000000000000000000000000000081526004016103c090612e60565b60405180910390fd5b600260009054906101000a900473ffffffffffffffffffffffffffffffffffffffff1673ffffffffffffffffffffffffffffffffffffffff163373ffffffffffffffffffffffffffffffffffffffff1614610459576040517f08c379a000000000000000000000000000000000000000000000000000000000815260040161045090612ee0565b60405180910390fd5b6104638585611066565b925050509998505050505050505050565b6301e1338081565b60606040517f08c379a00000000000000000000000000000000000000000000000000000000081526004016104b090612f80565b60405180910390fd5b6060600260009054906101000a900473ffffffffffffffffffffffffffffffffffffffff1673ffffffffffffffffffffffffffffffffffffffff163373ffffffffffffffffffffffffffffffffffffffff161461054b576040517f08c379a000000000000000000000000000000000000000000000000000000000815260040161054290612ee0565b60405180910390fd5b6105548a610f63565b1580610566575061056489610fbd565b155b156105b75782828080601f016020809104026020016040519081016040528093929190818152602001838380828437600081840152601f19601f8201169050808301925050505050505090506105c4565b6105c18383611066565b90505b9998505050505050505050565b60606040517f08c379a000000000000000000000000000000000000000000000000000000000815260040161060590612ec0565b60405180910390fd5b3373ffffffffffffffffffffffffffffffffffffffff1661062d610f39565b73ffffffffffffffffffffffffffffffffffffffff1614610683576040517f08c379a000000000000000000000000000000000000000000000000000000000815260040161067a90612fa0565b60405180910390fd5b6001600d60008373ffffffffffffffffffffffffffffffffffffffff1673ffffffffffffffffffffffffffffffffffffffff16815260200190815260200160002060006101000a81548160ff02191690831515021790555050565b600c60039054906101000a900460ff1681565b3373ffffffffffffffffffffffffffffffffffffffff16610710610f39565b73ffffffffffffffffffffffffffffffffffffffff1614610766576040517f08c379a000000000000000000000000000000000000000000000000000000000815260040161075d90612fa0565b60405180910390fd5b80600760006101000a81548173ffffffffffffffffffffffffffffffffffffffff021916908373ffffffffffffffffffffffffffffffffffffffff16021790555050565b6006600c9054906101000a900473ffffffffffffffffffffffffffffffffffffffff1681565b60606040517f08c379a000000000000000000000000000000000000000000000000000000000815260040161080490612f60565b60405180910390fd5b600d60008273ffffffffffffffffffffffffffffffffffffffff1673ffffffffffffffffffffffffffffffffffffffff16815260200190815260200160002060009054906101000a900460ff16610899576040517f08c379a000000000000000000000000000000000000000000000000000000000815260040161089090612f40565b60405180910390fd5b600c60039054906101000a900460ff166108e8576040517f08c379a00000000000000000000000000000000000000000000000000000000081526004016108df90612fc0565b60405180910390fd5b81600b0b8173ffffffffffffffffffffffffffffffffffffffff166370a08231306040518263ffffffff1660e01b81526004016109259190612c14565b60206040518083038186803b15801561093d57600080fd5b505afa158015610951573d6000803e3d6000fd5b505050506040513d601f19601f820116820180604052508101906109759190612667565b600460149054906101000a9004600b0b61098f9190613247565b600b0b136109d2576040517f08c379a00000000000000000000000000000000000000000000000000000000081526004016109c990612e80565b60405180910390fd5b600082600b0b90508173ffffffffffffffffffffffffffffffffffffffff166323b872dd3330846040518463ffffffff1660e01b8152600401610a1793929190612c2f565b602060405180830381600087803b158015610a3157600080fd5b505af1158015610a45573d6000803e3d6000fd5b505050506040513d601f19601f82011682018060405250810190610a6991906123de565b506000600860003373ffffffffffffffffffffffffffffffffffffffff1673ffffffffffffffffffffffffffffffffffffffff16815260200190815260200160002060009054906101000a9004600b0b905083600860003373ffffffffffffffffffffffffffffffffffffffff1673ffffffffffffffffffffffffffffffffffffffff16815260200190815260200160002060009054906101000a9004600b0b610b13919061306e565b600860003373ffffffffffffffffffffffffffffffffffffffff1673ffffffffffffffffffffffffffffffffffffffff16815260200190815260200160002060006101000a8154816bffffffffffffffffffffffff0219169083600b0b6bffffffffffffffffffffffff16021790555080600b0b600860003373ffffffffffffffffffffffffffffffffffffffff1673ffffffffffffffffffffffffffffffffffffffff16815260200190815260200160002060009054906101000a9004600b0b600b0b13610c17576040517f08c379a0000000000000000000000000000000000000000000000000000000008152600401610c0e90612f20565b60405180910390fd5b600960003373ffffffffffffffffffffffffffffffffffffffff1673ffffffffffffffffffffffffffffffffffffffff16815260200190815260200160002060009054906101000a900460ff16610d2457600a339080600181540180825580915050600190039060005260206000200160009091909190916101000a81548173ffffffffffffffffffffffffffffffffffffffff021916908373ffffffffffffffffffffffffffffffffffffffff1602179055506001600960003373ffffffffffffffffffffffffffffffffffffffff1673ffffffffffffffffffffffffffffffffffffffff16815260200190815260200160002060006101000a81548160ff0219169083151502179055505b7f691fdc2f833f8d90e23f9b6db1c8e9da787dbe39c50460cef23b02c7a1a55d613385604051610d55929190612c66565b60405180910390a150505050565b60008060000160009054906101000a900473ffffffffffffffffffffffffffffffffffffffff16908060010160009054906101000a900473ffffffffffffffffffffffffffffffffffffffff16905082565b60608989610dc282610f63565b610e01576040517f08c379a0000000000000000000000000000000000000000000000000000000008152600401610df890612ea0565b60405180910390fd5b610e0a81610fbd565b610e49576040517f08c379a0000000000000000000000000000000000000000000000000000000008152600401610e4090612e60565b60405180910390fd5b600260009054906101000a900473ffffffffffffffffffffffffffffffffffffffff1673ffffffffffffffffffffffffffffffffffffffff163373ffffffffffffffffffffffffffffffffffffffff1614610ed9576040517f08c379a0000000000000000000000000000000000000000000000000000000008152600401610ed090612ee0565b60405180910390fd5b600c60019054906101000a900460ff16610efe57610ef561161c565b610efd611a91565b5b610f088585611066565b925050509998505050505050505050565b600d6020528060005260406000206000915054906101000a900460ff1681565b6000600760009054906101000a900473ffffffffffffffffffffffffffffffffffffffff16905090565b6000600460009054906101000a900473ffffffffffffffffffffffffffffffffffffffff1673ffffffffffffffffffffffffffffffffffffffff168273ffffffffffffffffffffffffffffffffffffffff16149050919050565b60007fa9214cc96615e0085d3bb077758db69497dc2dce3b2b1e97bc93c3d18d83efd38273ffffffffffffffffffffffffffffffffffffffff16637730599e6040518163ffffffff1660e01b815260040160206040518083038186803b15801561102657600080fd5b505afa15801561103a573d6000803e3d6000fd5b505050506040513d601f19601f8201168201806040525081019061105e9190612407565b149050919050565b60606000600360009054906101000a900473ffffffffffffffffffffffffffffffffffffffff1673ffffffffffffffffffffffffffffffffffffffff1663e6a1e888600460009054906101000a900473ffffffffffffffffffffffffffffffffffffffff16306006600c9054906101000a900473ffffffffffffffffffffffffffffffffffffffff166040518463ffffffff1660e01b815260040161110d93929190612d4d565b60806040518083038186803b15801561112557600080fd5b505afa158015611139573d6000803e3d6000fd5b505050506040513d601f19601f8201168201806040525081019061115d9190612690565b505091505083838080601f016020809104026020016040519081016040528093929190818152602001838380828437600081840152601f19601f8201169050808301925050505050505091506000600a80549050905060011515600c60029054906101000a900460ff161515141561138057600080600190505b82811161137957600b6000600a6001846111f191906132c7565b81548110611228577f4e487b7100000000000000000000000000000000000000000000000000000000600052603260045260246000fd5b9060005260206000200160009054906101000a900473ffffffffffffffffffffffffffffffffffffffff1673ffffffffffffffffffffffffffffffffffffffff1673ffffffffffffffffffffffffffffffffffffffff16815260200190815260200160002060009054906101000a9004600b0b915061134985600a6001846112b091906132c7565b815481106112e7577f4e487b7100000000000000000000000000000000000000000000000000000000600052603260045260246000fd5b9060005260206000200160009054906101000a900473ffffffffffffffffffffffffffffffffffffffff16600460009054906101000a900473ffffffffffffffffffffffffffffffffffffffff16856000611baf90949392919063ffffffff16565b94506000600c60026101000a81548160ff02191690831515021790555080806113719061342f565b9150506111d7565b5050611614565b600082600b0b1415611461576000600190505b81811161145b576114468430600a6001856113ae91906132c7565b815481106113e5577f4e487b7100000000000000000000000000000000000000000000000000000000600052603260045260246000fd5b9060005260206000200160009054906101000a900473ffffffffffffffffffffffffffffffffffffffff16600460009054906101000a900473ffffffffffffffffffffffffffffffffffffffff166000611d8990949392919063ffffffff16565b935080806114539061342f565b915050611393565b50611613565b600760149054906101000a9004600b0b600b0b82600b0b1461161257611485611a91565b6000600190505b818111611610576115fb84600a6001846114a691906132c7565b815481106114dd577f4e487b7100000000000000000000000000000000000000000000000000000000600052603260045260246000fd5b9060005260206000200160009054906101000a900473ffffffffffffffffffffffffffffffffffffffff16600460009054906101000a900473ffffffffffffffffffffffffffffffffffffffff16600b6000600a60018861153e91906132c7565b81548110611575577f4e487b7100000000000000000000000000000000000000000000000000000000600052603260045260246000fd5b9060005260206000200160009054906101000a900473ffffffffffffffffffffffffffffffffffffffff1673ffffffffffffffffffffffffffffffffffffffff1673ffffffffffffffffffffffffffffffffffffffff16815260200190815260200160002060009054906101000a9004600b0b6000611f6390949392919063ffffffff16565b935080806116089061342f565b91505061148c565b505b5b5b505092915050565b6000600460009054906101000a900473ffffffffffffffffffffffffffffffffffffffff1673ffffffffffffffffffffffffffffffffffffffff166370a08231306040518263ffffffff1660e01b81526004016116799190612c14565b60206040518083038186803b15801561169157600080fd5b505afa1580156116a5573d6000803e3d6000fd5b505050506040513d601f19601f820116820180604052508101906116c99190612667565b11611709576040517f08c379a000000000000000000000000000000000000000000000000000000000815260040161170090612f00565b60405180910390fd5b6001600c60036101000a81548160ff0219169083151502179055611762576040517f08c379a000000000000000000000000000000000000000000000000000000000815260040161175990612fc0565b60405180910390fd5b600460009054906101000a900473ffffffffffffffffffffffffffffffffffffffff1673ffffffffffffffffffffffffffffffffffffffff166370a08231306040518263ffffffff1660e01b81526004016117bd9190612c14565b60206040518083038186803b1580156117d557600080fd5b505afa1580156117e9573d6000803e3d6000fd5b505050506040513d601f19601f8201168201806040525081019061180d9190612667565b600560006101000a8154816bffffffffffffffffffffffff0219169083600b0b6bffffffffffffffffffffffff1602179055506000600c60036101000a81548160ff0219169083151502179055506001600c60016101000a81548160ff0219169083151502179055506000600560009054906101000a9004600b0b600b0b9050600460009054906101000a900473ffffffffffffffffffffffffffffffffffffffff1673ffffffffffffffffffffffffffffffffffffffff1663a9059cbb6006600c9054906101000a900473ffffffffffffffffffffffffffffffffffffffff16836040518363ffffffff1660e01b815260040161190c929190612c8f565b602060405180830381600087803b15801561192657600080fd5b505af115801561193a573d6000803e3d6000fd5b505050506040513d601f19601f8201168201806040525081019061195e91906123de565b506000600360009054906101000a900473ffffffffffffffffffffffffffffffffffffffff1673ffffffffffffffffffffffffffffffffffffffff1663e6a1e888600460009054906101000a900473ffffffffffffffffffffffffffffffffffffffff16306006600c9054906101000a900473ffffffffffffffffffffffffffffffffffffffff166040518463ffffffff1660e01b8152600401611a0493929190612d4d565b60806040518083038186803b158015611a1c57600080fd5b505afa158015611a30573d6000803e3d6000fd5b505050506040513d601f19601f82011682018060405250810190611a549190612690565b505091505080600760146101000a8154816bffffffffffffffffffffffff0219169083600b0b6bffffffffffffffffffffffff1602179055505050565b6000600a8054905090506000600190505b818111611bab576000600a600183611aba91906132c7565b81548110611af1577f4e487b7100000000000000000000000000000000000000000000000000000000600052603260045260246000fd5b9060005260206000200160009054906101000a900473ffffffffffffffffffffffffffffffffffffffff169050611b278161213d565b600b60008373ffffffffffffffffffffffffffffffffffffffff1673ffffffffffffffffffffffffffffffffffffffff16815260200190815260200160002060006101000a8154816bffffffffffffffffffffffff0219169083600b0b6bffffffffffffffffffffffff160217905550508080611ba39061342f565b915050611aa2565b5050565b60608560000160009054906101000a900473ffffffffffffffffffffffffffffffffffffffff1673ffffffffffffffffffffffffffffffffffffffff16634329d2938760010160009054906101000a900473ffffffffffffffffffffffffffffffffffffffff166362fc305e60e01b868887600067ffffffffffffffff811115611c62577f4e487b7100000000000000000000000000000000000000000000000000000000600052604160045260246000fd5b6040519080825280601f01601f191660200182016040528015611c945781602001600182028036833780820191505090505b50604051602401611ca89493929190612dd0565b604051602081830303815290604052907bffffffffffffffffffffffffffffffffffffffffffffffffffffffff19166020820180517bffffffffffffffffffffffffffffffffffffffffffffffffffffffff8381831617835250505050886040518463ffffffff1660e01b8152600401611d2493929190612cf5565b600060405180830381600087803b158015611d3e57600080fd5b505af1158015611d52573d6000803e3d6000fd5b505050506040513d6000823e3d601f19601f82011682018060405250810190611d7b9190612430565b508091505095945050505050565b60608560000160009054906101000a900473ffffffffffffffffffffffffffffffffffffffff1673ffffffffffffffffffffffffffffffffffffffff16634329d2938760010160009054906101000a900473ffffffffffffffffffffffffffffffffffffffff1663b4b333c660e01b858888600067ffffffffffffffff811115611e3c577f4e487b7100000000000000000000000000000000000000000000000000000000600052604160045260246000fd5b6040519080825280601f01601f191660200182016040528015611e6e5781602001600182028036833780820191505090505b50604051602401611e829493929190612d84565b604051602081830303815290604052907bffffffffffffffffffffffffffffffffffffffffffffffffffffffff19166020820180517bffffffffffffffffffffffffffffffffffffffffffffffffffffffff8381831617835250505050886040518463ffffffff1660e01b8152600401611efe93929190612cf5565b600060405180830381600087803b158015611f1857600080fd5b505af1158015611f2c573d6000803e3d6000fd5b505050506040513d6000823e3d601f19601f82011682018060405250810190611f559190612430565b508091505095945050505050565b60608560000160009054906101000a900473ffffffffffffffffffffffffffffffffffffffff1673ffffffffffffffffffffffffffffffffffffffff16634329d2938760010160009054906101000a900473ffffffffffffffffffffffffffffffffffffffff166350209a6260e01b868887600067ffffffffffffffff811115612016577f4e487b7100000000000000000000000000000000000000000000000000000000600052604160045260246000fd5b6040519080825280601f01601f1916602001820160405280156120485781602001600182028036833780820191505090505b5060405160240161205c9493929190612dd0565b604051602081830303815290604052907bffffffffffffffffffffffffffffffffffffffffffffffffffffffff19166020820180517bffffffffffffffffffffffffffffffffffffffffffffffffffffffff8381831617835250505050886040518463ffffffff1660e01b81526004016120d893929190612cf5565b600060405180830381600087803b1580156120f257600080fd5b505af1158015612106573d6000803e3d6000fd5b505050506040513d6000823e3d601f19601f8201168201806040525081019061212f9190612430565b508091505095945050505050565b6000806127106005600c9054906101000a9004600b0b600560009054906101000a9004600b0b61216d9190613158565b61217791906130ee565b90506000600660009054906101000a9004600b0b61016d600560009054906101000a9004600b0b6121a89190613158565b6121b291906130ee565b9050600081836121c2919061306e565b90506000600560009054906101000a9004600b0b82600860008973ffffffffffffffffffffffffffffffffffffffff1673ffffffffffffffffffffffffffffffffffffffff16815260200190815260200160002060009054906101000a9004600b0b61222e9190613158565b61223891906130ee565b905060006301e133808261224c91906130ee565b90508095505050505050919050565b600061226e61226984613011565b612fe0565b90508281526020810184848401111561228657600080fd5b6122918482856133fc565b509392505050565b6000813590506122a881613516565b92915050565b6000815190506122bd8161352d565b92915050565b6000813590506122d281613544565b92915050565b6000815190506122e781613544565b92915050565b60008083601f8401126122ff57600080fd5b8235905067ffffffffffffffff81111561231857600080fd5b60208301915083600182028301111561233057600080fd5b9250929050565b600082601f83011261234857600080fd5b815161235884826020860161225b565b91505092915050565b6000813590506123708161355b565b92915050565b60008135905061238581613572565b92915050565b60008151905061239a81613572565b92915050565b6000815190506123af81613589565b92915050565b6000602082840312156123c757600080fd5b60006123d584828501612299565b91505092915050565b6000602082840312156123f057600080fd5b60006123fe848285016122ae565b91505092915050565b60006020828403121561241957600080fd5b6000612427848285016122d8565b91505092915050565b6000806040838503121561244357600080fd5b600083015167ffffffffffffffff81111561245d57600080fd5b61246985828601612337565b925050602083015167ffffffffffffffff81111561248657600080fd5b61249285828601612337565b9150509250929050565b600080600080600080600060a0888a0312156124b757600080fd5b60006124c58a828b01612361565b97505060206124d68a828b01612299565b96505060406124e78a828b016122c3565b955050606088013567ffffffffffffffff81111561250457600080fd5b6125108a828b016122ed565b9450945050608088013567ffffffffffffffff81111561252f57600080fd5b61253b8a828b016122ed565b925092505092959891949750929550565b600080600080600080600080600060c08a8c03121561256a57600080fd5b60006125788c828d01612361565b99505060206125898c828d01612299565b985050604061259a8c828d016122c3565b97505060608a013567ffffffffffffffff8111156125b757600080fd5b6125c38c828d016122ed565b965096505060808a013567ffffffffffffffff8111156125e257600080fd5b6125ee8c828d016122ed565b945094505060a08a013567ffffffffffffffff81111561260d57600080fd5b6126198c828d016122ed565b92509250509295985092959850929598565b6000806040838503121561263e57600080fd5b600061264c85828601612376565b925050602061265d85828601612299565b9150509250929050565b60006020828403121561267957600080fd5b6000612687848285016123a0565b91505092915050565b600080600080608085870312156126a657600080fd5b60006126b4878288016123a0565b94505060206126c58782880161238b565b93505060406126d6878288016123a0565b92505060606126e7878288016123a0565b91505092959194509250565b6126fc816132fb565b82525050565b61270b8161330d565b82525050565b600061271c82613041565b612726818561304c565b93506127368185602086016133fc565b61273f81613505565b840191505092915050565b6127538161336c565b82525050565b61276281613390565b82525050565b612771816133b4565b82525050565b612780816133d8565b82525050565b61278f81613335565b82525050565b60006127a260218361305d565b91507f5265646972656374416c6c3a206f6e6c7920434641763120737570706f72746560008301527f64000000000000000000000000000000000000000000000000000000000000006020830152604082019050919050565b6000612808602d8361305d565b91507f4e6f7420656e6f756768206c6f616e20636170616369747920666f722064657060008301527f6f736974207468697320626967000000000000000000000000000000000000006020830152604082019050919050565b600061286e601f8361305d565b91507f5265646972656374416c6c3a206e6f7420616363657074656420746f6b656e006000830152602082019050919050565b60006128ae60338361305d565b91507f556e737570706f727465642063616c6c6261636b202d20204265666f7265204160008301527f677265656d656e74205465726d696e61746564000000000000000000000000006020830152604082019050919050565b600061291460228361305d565b91507f5265646972656374416c6c3a20737570706f7274206f6e6c79206f6e6520686f60008301527f73740000000000000000000000000000000000000000000000000000000000006020830152604082019050919050565b600061297a60028361304c565b91507f30780000000000000000000000000000000000000000000000000000000000006000830152602082019050919050565b60006129ba602f8361305d565b91507f636f6e747261637420646f6573206e6f74206f776e20616e79206f662074686560008301527f20616363657074656420746f6b656e00000000000000000000000000000000006020830152604082019050919050565b6000612a2060098361305d565b91507f6f76657220666c6f7700000000000000000000000000000000000000000000006000830152602082019050919050565b6000612a6060308361305d565b91507f43616e206e6f74206465706f736974207468697320746f6b656e2e20506c656160008301527f73652077686974656c6973742069742e000000000000000000000000000000006020830152604082019050919050565b6000612ac6602f8361305d565b91507f556e737570706f727465642063616c6c6261636b202d204265666f726520416760008301527f7265656d656e74207570646174656400000000000000000000000000000000006020830152604082019050919050565b6000612b2c602f8361305d565b91507f556e737570706f727465642063616c6c6261636b202d204265666f726520416760008301527f7265656d656e74204372656174656400000000000000000000000000000000006020830152604082019050919050565b6000612b9260178361305d565b91507f63616c6c6572206973206e6f74207468652061646d696e0000000000000000006000830152602082019050919050565b6000612bd260128361305d565b91507f636c6f73656420746f206465706f7369747300000000000000000000000000006000830152602082019050919050565b612c0e81613362565b82525050565b6000602082019050612c2960008301846126f3565b92915050565b6000606082019050612c4460008301866126f3565b612c5160208301856126f3565b612c5e6040830184612c05565b949350505050565b6000604082019050612c7b60008301856126f3565b612c886020830184612786565b9392505050565b6000604082019050612ca460008301856126f3565b612cb16020830184612c05565b9392505050565b6000602082019050612ccd6000830184612702565b92915050565b60006020820190508181036000830152612ced8184612711565b905092915050565b6000608082019050612d0a600083018661274a565b8181036020830152612d1c8185612711565b90508181036040830152612d2f8161296d565b90508181036060830152612d438184612711565b9050949350505050565b6000606082019050612d626000830186612759565b612d6f60208301856126f3565b612d7c60408301846126f3565b949350505050565b6000608082019050612d996000830187612768565b612da660208301866126f3565b612db360408301856126f3565b8181036060830152612dc58184612711565b905095945050505050565b6000608082019050612de56000830187612768565b612df260208301866126f3565b612dff6040830185612786565b8181036060830152612e118184612711565b905095945050505050565b6000604082019050612e316000830185612777565b612e3e602083018461274a565b9392505050565b6000602082019050612e5a6000830184612786565b92915050565b60006020820190508181036000830152612e7981612795565b9050919050565b60006020820190508181036000830152612e99816127fb565b9050919050565b60006020820190508181036000830152612eb981612861565b9050919050565b60006020820190508181036000830152612ed9816128a1565b9050919050565b60006020820190508181036000830152612ef981612907565b9050919050565b60006020820190508181036000830152612f19816129ad565b9050919050565b60006020820190508181036000830152612f3981612a13565b9050919050565b60006020820190508181036000830152612f5981612a53565b9050919050565b60006020820190508181036000830152612f7981612ab9565b9050919050565b60006020820190508181036000830152612f9981612b1f565b9050919050565b60006020820190508181036000830152612fb981612b85565b9050919050565b60006020820190508181036000830152612fd981612bc5565b9050919050565b6000604051905081810181811067ffffffffffffffff82111715613007576130066134d6565b5b8060405250919050565b600067ffffffffffffffff82111561302c5761302b6134d6565b5b601f19601f8301169050602081019050919050565b600081519050919050565b600082825260208201905092915050565b600082825260208201905092915050565b600061307982613335565b915061308483613335565b9250816b7fffffffffffffffffffffff038313600083121516156130ab576130aa613478565b5b817fffffffffffffffffffffffffffffffffffffffff8000000000000000000000000383126000831216156130e3576130e2613478565b5b828201905092915050565b60006130f982613335565b915061310483613335565b925082613114576131136134a7565b5b600160000383147fffffffffffffffffffffffffffffffffffffffff8000000000000000000000008314161561314d5761314c613478565b5b828205905092915050565b600061316382613335565b915061316e83613335565b9250826b7fffffffffffffffffffffff048211600084136000841316161561319957613198613478565b5b817fffffffffffffffffffffffffffffffffffffffff80000000000000000000000005831260008412600084131616156131d6576131d5613478565b5b827fffffffffffffffffffffffffffffffffffffffff800000000000000000000000058212600084136000841216161561321357613212613478565b5b826b7fffffffffffffffffffffff058212600084126000841216161561323c5761323b613478565b5b828202905092915050565b600061325282613335565b915061325d83613335565b9250827fffffffffffffffffffffffffffffffffffffffff8000000000000000000000000182126000841215161561329857613297613478565b5b826b7fffffffffffffffffffffff0182136000841216156132bc576132bb613478565b5b828203905092915050565b60006132d282613362565b91506132dd83613362565b9250828210156132f0576132ef613478565b5b828203905092915050565b600061330682613342565b9050919050565b60008115159050919050565b6000819050919050565b600061332e826132fb565b9050919050565b600081600b0b9050919050565b600073ffffffffffffffffffffffffffffffffffffffff82169050919050565b6000819050919050565b60006133778261337e565b9050919050565b600061338982613342565b9050919050565b600061339b826133a2565b9050919050565b60006133ad82613342565b9050919050565b60006133bf826133c6565b9050919050565b60006133d182613342565b9050919050565b60006133e3826133ea565b9050919050565b60006133f582613342565b9050919050565b60005b8381101561341a5780820151818401526020810190506133ff565b83811115613429576000848401525b50505050565b600061343a82613362565b91507fffffffffffffffffffffffffffffffffffffffffffffffffffffffffffffffff82141561346d5761346c613478565b5b600182019050919050565b7f4e487b7100000000000000000000000000000000000000000000000000000000600052601160045260246000fd5b7f4e487b7100000000000000000000000000000000000000000000000000000000600052601260045260246000fd5b7f4e487b7100000000000000000000000000000000000000000000000000000000600052604160045260246000fd5b6000601f19601f8301169050919050565b61351f816132fb565b811461352a57600080fd5b50565b6135368161330d565b811461354157600080fd5b50565b61354d81613319565b811461355857600080fd5b50565b61356481613323565b811461356f57600080fd5b50565b61357b81613335565b811461358657600080fd5b50565b61359281613362565b811461359d57600080fd5b5056fea2646970667358221220624ec43099106a33a21511915c8591173bc349f23c00a89ed35135e83555684d64736f6c63430008000033",
  "linkReferences": {},
  "deployedLinkReferences": {}
}