{
  "_format": "hh-sol-artifact-1",
  "contractName": "Bond",
  "sourceName": "contracts/Bond.sol",
  "abi": [
    {
      "inputs": [
        {
          "internalType": "contract ISuperfluid",
          "name": "host",
          "type": "address"
        },
        {
          "internalType": "contract IConstantFlowAgreementV1",
          "name": "cfa",
          "type": "address"
        },
        {
          "internalType": "contract ISuperToken",
          "name": "acceptedToken",
          "type": "address"
        },
        {
          "internalType": "int96",
          "name": "fundingTarget",
          "type": "int96"
        },
        {
          "internalType": "int96",
          "name": "fundingRate",
          "type": "int96"
        },
        {
          "internalType": "int96",
          "name": "loanTerm",
          "type": "int96"
        }
      ],
      "stateMutability": "nonpayable",
      "type": "constructor"
    },
    {
      "stateMutability": "nonpayable",
      "type": "fallback"
    },
    {
      "inputs": [
        {
          "internalType": "contract ISuperToken",
          "name": "_superToken",
          "type": "address"
        },
        {
          "internalType": "address",
          "name": "_agreementClass",
          "type": "address"
        },
        {
          "internalType": "bytes32",
          "name": "",
          "type": "bytes32"
        },
        {
          "internalType": "bytes",
          "name": "",
          "type": "bytes"
        },
        {
          "internalType": "bytes",
          "name": "",
          "type": "bytes"
        },
        {
          "internalType": "bytes",
          "name": "_ctx",
          "type": "bytes"
        }
      ],
      "name": "afterAgreementCreated",
      "outputs": [
        {
          "internalType": "bytes",
          "name": "newCtx",
          "type": "bytes"
        }
      ],
      "stateMutability": "nonpayable",
      "type": "function"
    },
    {
      "inputs": [
        {
          "internalType": "contract ISuperToken",
          "name": "_superToken",
          "type": "address"
        },
        {
          "internalType": "address",
          "name": "_agreementClass",
          "type": "address"
        },
        {
          "internalType": "bytes32",
          "name": "",
          "type": "bytes32"
        },
        {
          "internalType": "bytes",
          "name": "",
          "type": "bytes"
        },
        {
          "internalType": "bytes",
          "name": "",
          "type": "bytes"
        },
        {
          "internalType": "bytes",
          "name": "_ctx",
          "type": "bytes"
        }
      ],
      "name": "afterAgreementTerminated",
      "outputs": [
        {
          "internalType": "bytes",
          "name": "newCtx",
          "type": "bytes"
        }
      ],
      "stateMutability": "nonpayable",
      "type": "function"
    },
    {
      "inputs": [
        {
          "internalType": "contract ISuperToken",
          "name": "_superToken",
          "type": "address"
        },
        {
          "internalType": "address",
          "name": "_agreementClass",
          "type": "address"
        },
        {
          "internalType": "bytes32",
          "name": "",
          "type": "bytes32"
        },
        {
          "internalType": "bytes",
          "name": "",
          "type": "bytes"
        },
        {
          "internalType": "bytes",
          "name": "",
          "type": "bytes"
        },
        {
          "internalType": "bytes",
          "name": "_ctx",
          "type": "bytes"
        }
      ],
      "name": "afterAgreementUpdated",
      "outputs": [
        {
          "internalType": "bytes",
          "name": "newCtx",
          "type": "bytes"
        }
      ],
      "stateMutability": "nonpayable",
      "type": "function"
    },
    {
      "inputs": [
        {
          "internalType": "contract ISuperToken",
          "name": "",
          "type": "address"
        },
        {
          "internalType": "address",
          "name": "",
          "type": "address"
        },
        {
          "internalType": "bytes32",
          "name": "",
          "type": "bytes32"
        },
        {
          "internalType": "bytes",
          "name": "",
          "type": "bytes"
        },
        {
          "internalType": "bytes",
          "name": "",
          "type": "bytes"
        }
      ],
      "name": "beforeAgreementCreated",
      "outputs": [
        {
          "internalType": "bytes",
          "name": "",
          "type": "bytes"
        }
      ],
      "stateMutability": "view",
      "type": "function"
    },
    {
      "inputs": [
        {
          "internalType": "contract ISuperToken",
          "name": "",
          "type": "address"
        },
        {
          "internalType": "address",
          "name": "",
          "type": "address"
        },
        {
          "internalType": "bytes32",
          "name": "",
          "type": "bytes32"
        },
        {
          "internalType": "bytes",
          "name": "",
          "type": "bytes"
        },
        {
          "internalType": "bytes",
          "name": "",
          "type": "bytes"
        }
      ],
      "name": "beforeAgreementTerminated",
      "outputs": [
        {
          "internalType": "bytes",
          "name": "",
          "type": "bytes"
        }
      ],
      "stateMutability": "view",
      "type": "function"
    },
    {
      "inputs": [
        {
          "internalType": "contract ISuperToken",
          "name": "",
          "type": "address"
        },
        {
          "internalType": "address",
          "name": "",
          "type": "address"
        },
        {
          "internalType": "bytes32",
          "name": "",
          "type": "bytes32"
        },
        {
          "internalType": "bytes",
          "name": "",
          "type": "bytes"
        },
        {
          "internalType": "bytes",
          "name": "",
          "type": "bytes"
        }
      ],
      "name": "beforeAgreementUpdated",
      "outputs": [
        {
          "internalType": "bytes",
          "name": "",
          "type": "bytes"
        }
      ],
      "stateMutability": "view",
      "type": "function"
    },
    {
      "inputs": [],
      "name": "borrower",
      "outputs": [
        {
          "internalType": "address",
          "name": "",
          "type": "address"
        }
      ],
      "stateMutability": "view",
      "type": "function"
    },
    {
      "inputs": [],
      "name": "cfaV1",
      "outputs": [
        {
          "internalType": "contract ISuperfluid",
          "name": "host",
          "type": "address"
        },
        {
          "internalType": "contract IConstantFlowAgreementV1",
          "name": "cfa",
          "type": "address"
        }
      ],
      "stateMutability": "view",
      "type": "function"
    },
    {
      "inputs": [],
      "name": "secondsPerYear",
      "outputs": [
        {
          "internalType": "int96",
          "name": "",
          "type": "int96"
        }
      ],
      "stateMutability": "view",
      "type": "function"
    },
    {
      "stateMutability": "payable",
      "type": "receive"
    }
  ],
  "bytecode": "0x60806040526000600c60016101000a81548160ff0219169083151502179055503480156200002c57600080fd5b506040516200343c3803806200343c833981810160405281019062000052919062000683565b600073ffffffffffffffffffffffffffffffffffffffff168673ffffffffffffffffffffffffffffffffffffffff161415620000c5576040517f08c379a0000000000000000000000000000000000000000000000000000000008152600401620000bc9062000862565b60405180910390fd5b600073ffffffffffffffffffffffffffffffffffffffff168573ffffffffffffffffffffffffffffffffffffffff16141562000138576040517f08c379a00000000000000000000000000000000000000000000000000000000081526004016200012f9062000840565b60405180910390fd5b600073ffffffffffffffffffffffffffffffffffffffff168473ffffffffffffffffffffffffffffffffffffffff161415620001ab576040517f08c379a0000000000000000000000000000000000000000000000000000000008152600401620001a2906200081e565b60405180910390fd5b85600260006101000a81548173ffffffffffffffffffffffffffffffffffffffff021916908373ffffffffffffffffffffffffffffffffffffffff1602179055508573ffffffffffffffffffffffffffffffffffffffff1663b6d200de7fa9214cc96615e0085d3bb077758db69497dc2dce3b2b1e97bc93c3d18d83efd36040518263ffffffff1660e01b815260040162000247919062000801565b60206040518083038186803b1580156200026057600080fd5b505afa15801562000275573d6000803e3d6000fd5b505050506040513d601f19601f820116820180604052508101906200029b919062000657565b600360006101000a81548173ffffffffffffffffffffffffffffffffffffffff021916908373ffffffffffffffffffffffffffffffffffffffff16021790555083600460006101000a81548173ffffffffffffffffffffffffffffffffffffffff021916908373ffffffffffffffffffffffffffffffffffffffff16021790555082600460146101000a8154816bffffffffffffffffffffffff0219169083600b0b6bffffffffffffffffffffffff160217905550816005600c6101000a8154816bffffffffffffffffffffffff0219169083600b0b6bffffffffffffffffffffffff16021790555080600660006101000a8154816bffffffffffffffffffffffff0219169083600b0b6bffffffffffffffffffffffff160217905550336006600c6101000a81548173ffffffffffffffffffffffffffffffffffffffff021916908373ffffffffffffffffffffffffffffffffffffffff1602179055506001600c60026101000a81548160ff0219169083151502179055506040518060400160405280600260009054906101000a900473ffffffffffffffffffffffffffffffffffffffff1673ffffffffffffffffffffffffffffffffffffffff168152602001600360009054906101000a900473ffffffffffffffffffffffffffffffffffffffff1673ffffffffffffffffffffffffffffffffffffffff168152506000808201518160000160006101000a81548173ffffffffffffffffffffffffffffffffffffffff021916908373ffffffffffffffffffffffffffffffffffffffff16021790555060208201518160010160006101000a81548173ffffffffffffffffffffffffffffffffffffffff021916908373ffffffffffffffffffffffffffffffffffffffff160217905550905050600064100000000064040000000064010000000060011717179050600260009054906101000a900473ffffffffffffffffffffffffffffffffffffffff1673ffffffffffffffffffffffffffffffffffffffff1663ad3915c8826040518263ffffffff1660e01b8152600401620005a3919062000884565b600060405180830381600087803b158015620005be57600080fd5b505af1158015620005d3573d6000803e3d6000fd5b5050505050505050505050620009d9565b600081519050620005f58162000957565b92915050565b6000815190506200060c8162000971565b92915050565b60008151905062000623816200098b565b92915050565b6000815190506200063a81620009a5565b92915050565b6000815190506200065181620009bf565b92915050565b6000602082840312156200066a57600080fd5b60006200067a84828501620005fb565b91505092915050565b60008060008060008060c087890312156200069d57600080fd5b6000620006ad89828a0162000629565b9650506020620006c089828a01620005e4565b9550506040620006d389828a0162000612565b9450506060620006e689828a0162000640565b9350506080620006f989828a0162000640565b92505060a06200070c89828a0162000640565b9150509295509295509295565b6200072481620008c6565b82525050565b600062000739601d83620008a1565b91507f6163636570746564546f6b656e206973207a65726f20616464726573730000006000830152602082019050919050565b60006200077b601383620008a1565b91507f636661206973207a65726f2061646472657373000000000000000000000000006000830152602082019050919050565b6000620007bd601483620008a1565b91507f686f7374206973207a65726f20616464726573730000000000000000000000006000830152602082019050919050565b620007fb816200094d565b82525050565b600060208201905062000818600083018462000719565b92915050565b6000602082019050818103600083015262000839816200072a565b9050919050565b600060208201905081810360008301526200085b816200076c565b9050919050565b600060208201905081810360008301526200087d81620007ae565b9050919050565b60006020820190506200089b6000830184620007f0565b92915050565b600082825260208201905092915050565b6000620008bf826200092d565b9050919050565b6000819050919050565b6000620008dd82620008b2565b9050919050565b6000620008f182620008b2565b9050919050565b60006200090582620008b2565b9050919050565b60006200091982620008b2565b9050919050565b600081600b0b9050919050565b600073ffffffffffffffffffffffffffffffffffffffff82169050919050565b6000819050919050565b6200096281620008d0565b81146200096e57600080fd5b50565b6200097c81620008e4565b81146200098857600080fd5b50565b6200099681620008f8565b8114620009a257600080fd5b50565b620009b0816200090c565b8114620009bc57600080fd5b50565b620009ca8162000920565b8114620009d657600080fd5b50565b612a5380620009e96000396000f3fe60806040526004361061008a5760003560e01c80635f9e7d77116100595780635f9e7d77146103575780637df1f1b914610394578063884d1f40146103bf578063d3112b2e146103fc578063d86ed3e51461042857610266565b8063230dbd2914610275578063252e40b1146102b257806330d9c915146102dd57806353c11f991461031a57610266565b366102665734600860003373ffffffffffffffffffffffffffffffffffffffff1673ffffffffffffffffffffffffffffffffffffffff16815260200190815260200160002060009054906101000a9004600b0b6100e7919061258e565b600860003373ffffffffffffffffffffffffffffffffffffffff1673ffffffffffffffffffffffffffffffffffffffff16815260200190815260200160002060006101000a8154816bffffffffffffffffffffffff0219169083600b0b6bffffffffffffffffffffffff160217905550600960003373ffffffffffffffffffffffffffffffffffffffff1673ffffffffffffffffffffffffffffffffffffffff16815260200190815260200160002060009054906101000a900460ff1661026457600a339080600181540180825580915050600190039060005260206000200160009091909190916101000a81548173ffffffffffffffffffffffffffffffffffffffff021916908373ffffffffffffffffffffffffffffffffffffffff1602179055506001600960003373ffffffffffffffffffffffffffffffffffffffff1673ffffffffffffffffffffffffffffffffffffffff16815260200190815260200160002060006101000a81548160ff0219169083151502179055505b005b34801561027257600080fd5b50005b34801561028157600080fd5b5061029c60048036038101906102979190611d4b565b610465565b6040516102a99190612268565b60405180910390f35b3480156102be57600080fd5b506102c76105a4565b6040516102d491906123da565b60405180910390f35b3480156102e957600080fd5b5061030460048036038101906102ff9190611c9b565b6105ac565b6040516103119190612268565b60405180910390f35b34801561032657600080fd5b50610341600480360381019061033c9190611d4b565b6105e9565b60405161034e9190612268565b60405180910390f35b34801561036357600080fd5b5061037e60048036038101906103799190611c9b565b610701565b60405161038b9190612268565b60405180910390f35b3480156103a057600080fd5b506103a961073e565b6040516103b6919061224d565b60405180910390f35b3480156103cb57600080fd5b506103e660048036038101906103e19190611c9b565b610764565b6040516103f39190612268565b60405180910390f35b34801561040857600080fd5b506104116107a1565b60405161041f9291906123b1565b60405180910390f35b34801561043457600080fd5b5061044f600480360381019061044a9190611d4b565b6107f3565b60405161045c9190612268565b60405180910390f35b6060898961047282610972565b6104b1576040517f08c379a00000000000000000000000000000000000000000000000000000000081526004016104a890612435565b60405180910390fd5b6104ba816109cc565b6104f9576040517f08c379a00000000000000000000000000000000000000000000000000000000081526004016104f090612415565b60405180910390fd5b600260009054906101000a900473ffffffffffffffffffffffffffffffffffffffff1673ffffffffffffffffffffffffffffffffffffffff163373ffffffffffffffffffffffffffffffffffffffff1614610589576040517f08c379a000000000000000000000000000000000000000000000000000000000815260040161058090612475565b60405180910390fd5b6105938585610a75565b925050509998505050505050505050565b6301e1338081565b60606040517f08c379a00000000000000000000000000000000000000000000000000000000081526004016105e0906124d5565b60405180910390fd5b6060600260009054906101000a900473ffffffffffffffffffffffffffffffffffffffff1673ffffffffffffffffffffffffffffffffffffffff163373ffffffffffffffffffffffffffffffffffffffff161461067b576040517f08c379a000000000000000000000000000000000000000000000000000000000815260040161067290612475565b60405180910390fd5b6106848a610972565b15806106965750610694896109cc565b155b156106e75782828080601f016020809104026020016040519081016040528093929190818152602001838380828437600081840152601f19601f8201169050808301925050505050505090506106f4565b6106f18383610a75565b90505b9998505050505050505050565b60606040517f08c379a000000000000000000000000000000000000000000000000000000000815260040161073590612455565b60405180910390fd5b6006600c9054906101000a900473ffffffffffffffffffffffffffffffffffffffff1681565b60606040517f08c379a0000000000000000000000000000000000000000000000000000000008152600401610798906124b5565b60405180910390fd5b60008060000160009054906101000a900473ffffffffffffffffffffffffffffffffffffffff16908060010160009054906101000a900473ffffffffffffffffffffffffffffffffffffffff16905082565b6060898961080082610972565b61083f576040517f08c379a000000000000000000000000000000000000000000000000000000000815260040161083690612435565b60405180910390fd5b610848816109cc565b610887576040517f08c379a000000000000000000000000000000000000000000000000000000000815260040161087e90612415565b60405180910390fd5b600260009054906101000a900473ffffffffffffffffffffffffffffffffffffffff1673ffffffffffffffffffffffffffffffffffffffff163373ffffffffffffffffffffffffffffffffffffffff1614610917576040517f08c379a000000000000000000000000000000000000000000000000000000000815260040161090e90612475565b60405180910390fd5b600c60019054906101000a900460ff166109575761093361102b565b6001600c60016101000a81548160ff0219169083151502179055506109566112a2565b5b6109618585610a75565b925050509998505050505050505050565b6000600460009054906101000a900473ffffffffffffffffffffffffffffffffffffffff1673ffffffffffffffffffffffffffffffffffffffff168273ffffffffffffffffffffffffffffffffffffffff16149050919050565b60007fa9214cc96615e0085d3bb077758db69497dc2dce3b2b1e97bc93c3d18d83efd38273ffffffffffffffffffffffffffffffffffffffff16637730599e6040518163ffffffff1660e01b815260040160206040518083038186803b158015610a3557600080fd5b505afa158015610a49573d6000803e3d6000fd5b505050506040513d601f19601f82011682018060405250810190610a6d9190611c06565b149050919050565b60606000600360009054906101000a900473ffffffffffffffffffffffffffffffffffffffff1673ffffffffffffffffffffffffffffffffffffffff1663e6a1e888600460009054906101000a900473ffffffffffffffffffffffffffffffffffffffff16306006600c9054906101000a900473ffffffffffffffffffffffffffffffffffffffff166040518463ffffffff1660e01b8152600401610b1c939291906122e2565b60806040518083038186803b158015610b3457600080fd5b505afa158015610b48573d6000803e3d6000fd5b505050506040513d601f19601f82011682018060405250810190610b6c9190611e2a565b505091505083838080601f016020809104026020016040519081016040528093929190818152602001838380828437600081840152601f19601f8201169050808301925050505050505091506000600a80549050905060011515600c60029054906101000a900460ff1615151415610d8f57600080600190505b828111610d8857600b6000600a600184610c009190612767565b81548110610c37577f4e487b7100000000000000000000000000000000000000000000000000000000600052603260045260246000fd5b9060005260206000200160009054906101000a900473ffffffffffffffffffffffffffffffffffffffff1673ffffffffffffffffffffffffffffffffffffffff1673ffffffffffffffffffffffffffffffffffffffff16815260200190815260200160002060009054906101000a9004600b0b9150610d5885600a600184610cbf9190612767565b81548110610cf6577f4e487b7100000000000000000000000000000000000000000000000000000000600052603260045260246000fd5b9060005260206000200160009054906101000a900473ffffffffffffffffffffffffffffffffffffffff16600460009054906101000a900473ffffffffffffffffffffffffffffffffffffffff1685600061142a90949392919063ffffffff16565b94506000600c60026101000a81548160ff0219169083151502179055508080610d80906128c3565b915050610be6565b5050611023565b600082600b0b1415610e70576000600190505b818111610e6a57610e558430600a600185610dbd9190612767565b81548110610df4577f4e487b7100000000000000000000000000000000000000000000000000000000600052603260045260246000fd5b9060005260206000200160009054906101000a900473ffffffffffffffffffffffffffffffffffffffff16600460009054906101000a900473ffffffffffffffffffffffffffffffffffffffff16600061160490949392919063ffffffff16565b93508080610e62906128c3565b915050610da2565b50611022565b600760009054906101000a9004600b0b600b0b82600b0b1461102157610e946112a2565b6000600190505b81811161101f5761100a84600a600184610eb59190612767565b81548110610eec577f4e487b7100000000000000000000000000000000000000000000000000000000600052603260045260246000fd5b9060005260206000200160009054906101000a900473ffffffffffffffffffffffffffffffffffffffff16600460009054906101000a900473ffffffffffffffffffffffffffffffffffffffff16600b6000600a600188610f4d9190612767565b81548110610f84577f4e487b7100000000000000000000000000000000000000000000000000000000600052603260045260246000fd5b9060005260206000200160009054906101000a900473ffffffffffffffffffffffffffffffffffffffff1673ffffffffffffffffffffffffffffffffffffffff1673ffffffffffffffffffffffffffffffffffffffff16815260200190815260200160002060009054906101000a9004600b0b60006117de90949392919063ffffffff16565b93508080611017906128c3565b915050610e9b565b505b5b5b505092915050565b6000471161106e576040517f08c379a000000000000000000000000000000000000000000000000000000000815260040161106590612495565b60405180910390fd5b47600560006101000a8154816bffffffffffffffffffffffff0219169083600b0b6bffffffffffffffffffffffff16021790555060006006600c9054906101000a900473ffffffffffffffffffffffffffffffffffffffff1673ffffffffffffffffffffffffffffffffffffffff16476040516110ea90612238565b60006040518083038185875af1925050503d8060008114611127576040519150601f19603f3d011682016040523d82523d6000602084013e61112c565b606091505b5050905080611170576040517f08c379a0000000000000000000000000000000000000000000000000000000008152600401611167906123f5565b60405180910390fd5b6000600360009054906101000a900473ffffffffffffffffffffffffffffffffffffffff1673ffffffffffffffffffffffffffffffffffffffff1663e6a1e888600460009054906101000a900473ffffffffffffffffffffffffffffffffffffffff16306006600c9054906101000a900473ffffffffffffffffffffffffffffffffffffffff166040518463ffffffff1660e01b8152600401611215939291906122e2565b60806040518083038186803b15801561122d57600080fd5b505afa158015611241573d6000803e3d6000fd5b505050506040513d601f19601f820116820180604052508101906112659190611e2a565b505091505080600760006101000a8154816bffffffffffffffffffffffff0219169083600b0b6bffffffffffffffffffffffff1602179055505050565b6000600a8054905090506000600190505b81811161142657611333600a6001836112cc9190612767565b81548110611303577f4e487b7100000000000000000000000000000000000000000000000000000000600052603260045260246000fd5b9060005260206000200160009054906101000a900473ffffffffffffffffffffffffffffffffffffffff166119b8565b600b6000600a6001856113469190612767565b8154811061137d577f4e487b7100000000000000000000000000000000000000000000000000000000600052603260045260246000fd5b9060005260206000200160009054906101000a900473ffffffffffffffffffffffffffffffffffffffff1673ffffffffffffffffffffffffffffffffffffffff1673ffffffffffffffffffffffffffffffffffffffff16815260200190815260200160002060006101000a8154816bffffffffffffffffffffffff0219169083600b0b6bffffffffffffffffffffffff160217905550808061141e906128c3565b9150506112b3565b5050565b60608560000160009054906101000a900473ffffffffffffffffffffffffffffffffffffffff1673ffffffffffffffffffffffffffffffffffffffff16634329d2938760010160009054906101000a900473ffffffffffffffffffffffffffffffffffffffff166362fc305e60e01b868887600067ffffffffffffffff8111156114dd577f4e487b7100000000000000000000000000000000000000000000000000000000600052604160045260246000fd5b6040519080825280601f01601f19166020018201604052801561150f5781602001600182028036833780820191505090505b506040516024016115239493929190612365565b604051602081830303815290604052907bffffffffffffffffffffffffffffffffffffffffffffffffffffffff19166020820180517bffffffffffffffffffffffffffffffffffffffffffffffffffffffff8381831617835250505050886040518463ffffffff1660e01b815260040161159f9392919061228a565b600060405180830381600087803b1580156115b957600080fd5b505af11580156115cd573d6000803e3d6000fd5b505050506040513d6000823e3d601f19601f820116820180604052508101906115f69190611c2f565b508091505095945050505050565b60608560000160009054906101000a900473ffffffffffffffffffffffffffffffffffffffff1673ffffffffffffffffffffffffffffffffffffffff16634329d2938760010160009054906101000a900473ffffffffffffffffffffffffffffffffffffffff1663b4b333c660e01b858888600067ffffffffffffffff8111156116b7577f4e487b7100000000000000000000000000000000000000000000000000000000600052604160045260246000fd5b6040519080825280601f01601f1916602001820160405280156116e95781602001600182028036833780820191505090505b506040516024016116fd9493929190612319565b604051602081830303815290604052907bffffffffffffffffffffffffffffffffffffffffffffffffffffffff19166020820180517bffffffffffffffffffffffffffffffffffffffffffffffffffffffff8381831617835250505050886040518463ffffffff1660e01b81526004016117799392919061228a565b600060405180830381600087803b15801561179357600080fd5b505af11580156117a7573d6000803e3d6000fd5b505050506040513d6000823e3d601f19601f820116820180604052508101906117d09190611c2f565b508091505095945050505050565b60608560000160009054906101000a900473ffffffffffffffffffffffffffffffffffffffff1673ffffffffffffffffffffffffffffffffffffffff16634329d2938760010160009054906101000a900473ffffffffffffffffffffffffffffffffffffffff166350209a6260e01b868887600067ffffffffffffffff811115611891577f4e487b7100000000000000000000000000000000000000000000000000000000600052604160045260246000fd5b6040519080825280601f01601f1916602001820160405280156118c35781602001600182028036833780820191505090505b506040516024016118d79493929190612365565b604051602081830303815290604052907bffffffffffffffffffffffffffffffffffffffffffffffffffffffff19166020820180517bffffffffffffffffffffffffffffffffffffffffffffffffffffffff8381831617835250505050886040518463ffffffff1660e01b81526004016119539392919061228a565b600060405180830381600087803b15801561196d57600080fd5b505af1158015611981573d6000803e3d6000fd5b505050506040513d6000823e3d601f19601f820116820180604052508101906119aa9190611c2f565b508091505095945050505050565b6000806127106005600c9054906101000a9004600b0b600560009054906101000a9004600b0b6119e89190612678565b6119f2919061260e565b90506000600660009054906101000a9004600b0b61016d600560009054906101000a9004600b0b611a239190612678565b611a2d919061260e565b905060008183611a3d919061258e565b90506000600560009054906101000a9004600b0b82600860008973ffffffffffffffffffffffffffffffffffffffff1673ffffffffffffffffffffffffffffffffffffffff16815260200190815260200160002060009054906101000a9004600b0b611aa99190612678565b611ab3919061260e565b905060006301e1338082611ac7919061260e565b90508095505050505050919050565b6000611ae9611ae484612526565b6124f5565b905082815260208101848484011115611b0157600080fd5b611b0c848285612890565b509392505050565b600081359050611b23816129aa565b92915050565b600081359050611b38816129c1565b92915050565b600081519050611b4d816129c1565b92915050565b60008083601f840112611b6557600080fd5b8235905067ffffffffffffffff811115611b7e57600080fd5b602083019150836001820283011115611b9657600080fd5b9250929050565b600082601f830112611bae57600080fd5b8151611bbe848260208601611ad6565b91505092915050565b600081359050611bd6816129d8565b92915050565b600081519050611beb816129ef565b92915050565b600081519050611c0081612a06565b92915050565b600060208284031215611c1857600080fd5b6000611c2684828501611b3e565b91505092915050565b60008060408385031215611c4257600080fd5b600083015167ffffffffffffffff811115611c5c57600080fd5b611c6885828601611b9d565b925050602083015167ffffffffffffffff811115611c8557600080fd5b611c9185828601611b9d565b9150509250929050565b600080600080600080600060a0888a031215611cb657600080fd5b6000611cc48a828b01611bc7565b9750506020611cd58a828b01611b14565b9650506040611ce68a828b01611b29565b955050606088013567ffffffffffffffff811115611d0357600080fd5b611d0f8a828b01611b53565b9450945050608088013567ffffffffffffffff811115611d2e57600080fd5b611d3a8a828b01611b53565b925092505092959891949750929550565b600080600080600080600080600060c08a8c031215611d6957600080fd5b6000611d778c828d01611bc7565b9950506020611d888c828d01611b14565b9850506040611d998c828d01611b29565b97505060608a013567ffffffffffffffff811115611db657600080fd5b611dc28c828d01611b53565b965096505060808a013567ffffffffffffffff811115611de157600080fd5b611ded8c828d01611b53565b945094505060a08a013567ffffffffffffffff811115611e0c57600080fd5b611e188c828d01611b53565b92509250509295985092959850929598565b60008060008060808587031215611e4057600080fd5b6000611e4e87828801611bf1565b9450506020611e5f87828801611bdc565b9350506040611e7087828801611bf1565b9250506060611e8187828801611bf1565b91505092959194509250565b611e968161279b565b82525050565b6000611ea782612556565b611eb18185612561565b9350611ec1818560208601612890565b611eca81612999565b840191505092915050565b611ede81612800565b82525050565b611eed81612824565b82525050565b611efc81612848565b82525050565b611f0b8161286c565b82525050565b611f1a816127c9565b82525050565b6000611f2d60208361257d565b91507f4661696c656420746f2073656e6420457468657220746f20426f72726f7765726000830152602082019050919050565b6000611f6d60218361257d565b91507f5265646972656374416c6c3a206f6e6c7920434641763120737570706f72746560008301527f64000000000000000000000000000000000000000000000000000000000000006020830152604082019050919050565b6000611fd3601f8361257d565b91507f5265646972656374416c6c3a206e6f7420616363657074656420746f6b656e006000830152602082019050919050565b600061201360338361257d565b91507f556e737570706f727465642063616c6c6261636b202d20204265666f7265204160008301527f677265656d656e74205465726d696e61746564000000000000000000000000006020830152604082019050919050565b600061207960228361257d565b91507f5265646972656374416c6c3a20737570706f7274206f6e6c79206f6e6520686f60008301527f73740000000000000000000000000000000000000000000000000000000000006020830152604082019050919050565b60006120df600283612561565b91507f30780000000000000000000000000000000000000000000000000000000000006000830152602082019050919050565b600061211f60118361257d565b91507f636f6e747261637420697320656d7074790000000000000000000000000000006000830152602082019050919050565b600061215f602f8361257d565b91507f556e737570706f727465642063616c6c6261636b202d204265666f726520416760008301527f7265656d656e74207570646174656400000000000000000000000000000000006020830152604082019050919050565b60006121c5600083612572565b9150600082019050919050565b60006121df602f8361257d565b91507f556e737570706f727465642063616c6c6261636b202d204265666f726520416760008301527f7265656d656e74204372656174656400000000000000000000000000000000006020830152604082019050919050565b6000612243826121b8565b9150819050919050565b60006020820190506122626000830184611e8d565b92915050565b600060208201905081810360008301526122828184611e9c565b905092915050565b600060808201905061229f6000830186611ed5565b81810360208301526122b18185611e9c565b905081810360408301526122c4816120d2565b905081810360608301526122d88184611e9c565b9050949350505050565b60006060820190506122f76000830186611ee4565b6123046020830185611e8d565b6123116040830184611e8d565b949350505050565b600060808201905061232e6000830187611ef3565b61233b6020830186611e8d565b6123486040830185611e8d565b818103606083015261235a8184611e9c565b905095945050505050565b600060808201905061237a6000830187611ef3565b6123876020830186611e8d565b6123946040830185611f11565b81810360608301526123a68184611e9c565b905095945050505050565b60006040820190506123c66000830185611f02565b6123d36020830184611ed5565b9392505050565b60006020820190506123ef6000830184611f11565b92915050565b6000602082019050818103600083015261240e81611f20565b9050919050565b6000602082019050818103600083015261242e81611f60565b9050919050565b6000602082019050818103600083015261244e81611fc6565b9050919050565b6000602082019050818103600083015261246e81612006565b9050919050565b6000602082019050818103600083015261248e8161206c565b9050919050565b600060208201905081810360008301526124ae81612112565b9050919050565b600060208201905081810360008301526124ce81612152565b9050919050565b600060208201905081810360008301526124ee816121d2565b9050919050565b6000604051905081810181811067ffffffffffffffff8211171561251c5761251b61296a565b5b8060405250919050565b600067ffffffffffffffff8211156125415761254061296a565b5b601f19601f8301169050602081019050919050565b600081519050919050565b600082825260208201905092915050565b600081905092915050565b600082825260208201905092915050565b6000612599826127c9565b91506125a4836127c9565b9250816b7fffffffffffffffffffffff038313600083121516156125cb576125ca61290c565b5b817fffffffffffffffffffffffffffffffffffffffff8000000000000000000000000383126000831216156126035761260261290c565b5b828201905092915050565b6000612619826127c9565b9150612624836127c9565b9250826126345761263361293b565b5b600160000383147fffffffffffffffffffffffffffffffffffffffff8000000000000000000000008314161561266d5761266c61290c565b5b828205905092915050565b6000612683826127c9565b915061268e836127c9565b9250826b7fffffffffffffffffffffff04821160008413600084131616156126b9576126b861290c565b5b817fffffffffffffffffffffffffffffffffffffffff80000000000000000000000005831260008412600084131616156126f6576126f561290c565b5b827fffffffffffffffffffffffffffffffffffffffff80000000000000000000000005821260008413600084121616156127335761273261290c565b5b826b7fffffffffffffffffffffff058212600084126000841216161561275c5761275b61290c565b5b828202905092915050565b6000612772826127f6565b915061277d836127f6565b9250828210156127905761278f61290c565b5b828203905092915050565b60006127a6826127d6565b9050919050565b6000819050919050565b60006127c28261279b565b9050919050565b600081600b0b9050919050565b600073ffffffffffffffffffffffffffffffffffffffff82169050919050565b6000819050919050565b600061280b82612812565b9050919050565b600061281d826127d6565b9050919050565b600061282f82612836565b9050919050565b6000612841826127d6565b9050919050565b60006128538261285a565b9050919050565b6000612865826127d6565b9050919050565b60006128778261287e565b9050919050565b6000612889826127d6565b9050919050565b60005b838110156128ae578082015181840152602081019050612893565b838111156128bd576000848401525b50505050565b60006128ce826127f6565b91507fffffffffffffffffffffffffffffffffffffffffffffffffffffffffffffffff8214156129015761290061290c565b5b600182019050919050565b7f4e487b7100000000000000000000000000000000000000000000000000000000600052601160045260246000fd5b7f4e487b7100000000000000000000000000000000000000000000000000000000600052601260045260246000fd5b7f4e487b7100000000000000000000000000000000000000000000000000000000600052604160045260246000fd5b6000601f19601f8301169050919050565b6129b38161279b565b81146129be57600080fd5b50565b6129ca816127ad565b81146129d557600080fd5b50565b6129e1816127b7565b81146129ec57600080fd5b50565b6129f8816127c9565b8114612a0357600080fd5b50565b612a0f816127f6565b8114612a1a57600080fd5b5056fea26469706673582212200b917442696fcdd1c1a481a45369ffce619f35aaef0d9d37fa9b14064a1fa54c64736f6c63430008000033",
  "linkReferences": {},
  "deployedLinkReferences": {}
}